AD0100ALVL+0100+02000200240331K0300241027K02+02000200250330K0300251026K03+02000200260329K0300261025KANDORRA LA VELLA OFF-LINE POINT        42.31.00N001.32.00E   IO     40204020
AE0100AANL+0400     0000000000 0000000000        0000000000 0000000000        0000000000 0000000000 AL AIN                                 24.15.42N055.36.33E    A     67806780
AE0100AUHA+0400     0000000000 0000000000        0000000000 0000000000        0000000000 0000000000 ZAYED INTERNATIONAL                    24.25.59N054.39.04EAUH A     67806780
AE0100AUHM+0400     0000000000 0000000000        0000000000 0000000000        0000000000 0000000000 ABU DHABI                              24.28.00N054.22.00E          67806780
AE0100AYML+0400     0000000000 0000000000        0000000000 0000000000        0000000000 0000000000 ABU DHABI YAS ISLAND SPB               24.28.15N054.36.35E   IA     67806780
AE0100AZIA+0400     0000000000 0000000000        0000000000 0000000000        0000000000 0000000000 ABU DHABI BATEEN APT                   24.25.40N054.27.33EAUHIA     67806780
AE0100DCGL+0400     0000000000 0000000000        0000000000 0000000000        0000000000 0000000000 DUBAI CREEK SPB                        25.14.32N055.19.54E   IA     67806780
AE0100DHFA+0400     0000000000 0000000000        0000000000 0000000000        0000000000 0000000000 ABU DHABI AL DHAFRA AB APT             24.14.51N054.32.59EAUHIA     67806780
AE0100DJHL+0400     0000000000 0000000000        0000000000 0000000000        0000000000 0000000000 DUBAI JEBEL ALI SPB                    25.00.07N055.01.27E   IA     67806780
AE0100DSTL+0400     0000000000 0000000000        0000000000 0000000000        0000000000 0000000000 DUBAI SEAPLANE TERMINAL                25.15.41N055.16.35E   IA     67806780
AE0100DWCA+0400     0000000000 0000000000        0000000000 0000000000        0000000000 0000000000 DUBAI AL MAKTOUM INTL                  24.53.46N055.09.36EDXB A     67806780
AE0100DXBA+0400     0000000000 0000000000        0000000000 0000000000        0000000000 0000000000 DUBAI INTERNATIONAL                    25.15.10N055.21.52EDXB A     67806780
AE0100DXBM+0400     0000000000 0000000000        0000000000 0000000000        0000000000 0000000000 DUBAI                                  25.15.10N055.21.50E          67806780
AE0100FJRL+0400     0000000000 0000000000        0000000000 0000000000        0000000000 0000000000 FUJAIRAH                               25.06.44N056.19.26E    A     67806780
AE0100NHDA+0400     0000000000 0000000000        0000000000 0000000000        0000000000 0000000000 DUBAI MINHAD AB                        25.01.37N055.21.59EDXBIA     67806780
AE0100QAJL+0400     0000000000 0000000000        0000000000 0000000000        0000000000 0000000000 AJMAN CITY OFF-LINE POINT              25.23.00N055.26.00E   IO     67806780
AE0100QIWL+0400     0000000000 0000000000        0000000000 0000000000        0000000000 0000000000 UMM AL QUWAIN OFF-LINE POINT           25.32.00N055.35.00E   IO     67806780
AE0100RHRL+0400     0000000000 0000000000        0000000000 0000000000        0000000000 0000000000 RAS AL KHAIMAH AL HAMRA SPB            25.41.26N055.46.40E   IA     67806780
AE0100RKTL+0400     0000000000 0000000000        0000000000 0000000000        0000000000 0000000000 RAS AL KHAIMAH                         25.36.49N055.56.20E    A     67806780
AE0100SHJL+0400     0000000000 0000000000        0000000000 0000000000        0000000000 0000000000 SHARJAH                                25.19.43N055.31.02E    A     67806780
AE0100XBWL+0400     0000000000 0000000000        0000000000 0000000000        0000000000 0000000000 ABU DHABI NP BUS STATION               24.29.17N054.21.51E   IB     67806780
AE0100XEUA+0400     0000000000 0000000000        0000000000 0000000000        0000000000 0000000000 DUBAI HYATT RGNCY EY BUS STN           25.16.44N055.18.15EDXBIB     67806780
AE0100XHBL+0400     0000000000 0000000000        0000000000 0000000000        0000000000 0000000000 DUBAI NP BUS STATION                   25.10.04N055.13.19E   IB     67806780
AE0100XNBA+0400     0000000000 0000000000        0000000000 0000000000        0000000000 0000000000 DUBAI ETIHAD BUS STATION               25.17.35N055.35.17EDXB B     67806780
AE0100XSBL+0400     0000000000 0000000000        0000000000 0000000000        0000000000 0000000000 SIR BANI YAS ISLAND                    24.16.58N052.34.54E   IA     67806780
AE0100ZDYL+0400     0000000000 0000000000        0000000000 0000000000        0000000000 0000000000 DELMA ISLAND                           24.30.36N052.20.07E   IA     67806780
AE0100ZVHL+0400     0000000000 0000000000        0000000000 0000000000        0000000000 0000000000 AL AIN BUS STATION                     24.13.12N055.45.36E    B     67806780
AE0100ZVJA+0400     0000000000 0000000000        0000000000 0000000000        0000000000 0000000000 ABU DHABI BUS STATION                  24.28.12N054.19.48EAUH B     67806780
AE0100ZXZL+0400     0000000000 0000000000        0000000000 0000000000        0000000000 0000000000 DUBAI JUMEIRAH BEACH BUS STATION       25.25.00N055.28.00E   IB     67806780
AF0100BINL+0430     0000000000 0000000000        0000000000 0000000000        0000000000 0000000000 BAMYAN                                 34.48.00N067.49.00E   IA     70107010
AF0100BSTL+0430     0000000000 0000000000        0000000000 0000000000        0000000000 0000000000 LASHKAR GAH                            31.33.37N064.21.54E   IA     70107010
AF0100CCNL+0430     0000000000 0000000000        0000000000 0000000000        0000000000 0000000000 CHAGHCHARAN                            34.31.35N065.16.15E   IA     70107010
AF0100DAZL+0430     0000000000 0000000000        0000000000 0000000000        0000000000 0000000000 DARWAZ                                 38.28.00N070.53.00E   IA     70107010
AF0100DWRL+0430     0000000000 0000000000        0000000000 0000000000        0000000000 0000000000 DWYER AIR BASE                         31.05.30N064.04.00E   IA     70107010
AF0100FAHL+0430     0000000000 0000000000        0000000000 0000000000        0000000000 0000000000 FARAH                                  32.21.58N062.09.56E   IA     70107010
AF0100FBDL+0430     0000000000 0000000000        0000000000 0000000000        0000000000 0000000000 FAIZABAD                               37.07.21N070.31.05E   IA     70107010
AF0100GRGL+0430     0000000000 0000000000        0000000000 0000000000        0000000000 0000000000 GARDEZ                                 33.37.00N069.07.00E   IA     70107010
AF0100GZIL+0430     0000000000 0000000000        0000000000 0000000000        0000000000 0000000000 GHAZNI                                 33.31.53N068.24.47E   IA     70107010
AF0100HEAL+0430     0000000000 0000000000        0000000000 0000000000        0000000000 0000000000 HERAT                                  34.12.36N062.13.42E    A     70107010
AF0100JAAL+0430     0000000000 0000000000        0000000000 0000000000        0000000000 0000000000 JALALABAD                              34.24.00N070.29.54E   IA     70107010
AF0100KBLL+0430     0000000000 0000000000        0000000000 0000000000        0000000000 0000000000 KABUL                                  34.33.57N069.12.45E    A     70107010
AF0100KDHL+0430     0000000000 0000000000        0000000000 0000000000        0000000000 0000000000 KANDAHAR                               31.30.20N065.50.52E    A     70107010
AF0100KHTL+0430     0000000000 0000000000        0000000000 0000000000        0000000000 0000000000 KHOST                                  33.20.02N069.57.10E    A     70107010
AF0100KURL+0430     0000000000 0000000000        0000000000 0000000000        0000000000 0000000000 KIRAN WA MUNJAN                        38.24.00N071.07.00E   IA     70107010
AF0100KWHL+0430     0000000000 0000000000        0000000000 0000000000        0000000000 0000000000 KHWAHAN                                37.53.00N070.12.00E   IA     70107010
AF0100LQNL+0430     0000000000 0000000000        0000000000 0000000000        0000000000 0000000000 QALAH-YE NOW                           34.59.11N063.07.08E   IA     70107010
AF0100MMZL+0430     0000000000 0000000000        0000000000 0000000000        0000000000 0000000000 MAIMANAH                               35.55.33N064.45.57E   IA     70107010
AF0100MZRL+0430     0000000000 0000000000        0000000000 0000000000        0000000000 0000000000 MAZAR-E SHARIF                         36.42.25N067.12.34E    A     70107010
AF0100OAAL+0430     0000000000 0000000000        0000000000 0000000000        0000000000 0000000000 SHANK AIR BASE                         33.55.19N069.04.40E   IA     70107010
AF0100OAHL+0430     0000000000 0000000000        0000000000 0000000000        0000000000 0000000000 SHINDAND                               33.23.28N062.15.40E   IA     70107010
AF0100OAIL+0430     0000000000 0000000000        0000000000 0000000000        0000000000 0000000000 BAGRAM                                 34.56.47N069.15.54E   IA     70107010
AF0100OASL+0430     0000000000 0000000000        0000000000 0000000000        0000000000 0000000000 SHARANA                                33.07.33N068.50.19E   IA     70107010
AF0100OAZL+0430     0000000000 0000000000        0000000000 0000000000        0000000000 0000000000 CAMP BASTION                           31.51.18N064.12.44E   IA     70107010
AF0100OLRL+0430     0000000000 0000000000        0000000000 0000000000        0000000000 0000000000 SALERNO AIR BASE                       33.21.49N069.57.19E   IA     70107010
AF0100SBFL+0430     0000000000 0000000000        0000000000 0000000000        0000000000 0000000000 SARDEH BAND                            33.37.00N068.32.00E   IA     70107010
AF0100SGAL+0430     0000000000 0000000000        0000000000 0000000000        0000000000 0000000000 SHEGHNAN                               38.02.00N071.43.00E   IA     70107010
AF0100TIIL+0430     0000000000 0000000000        0000000000 0000000000        0000000000 0000000000 TARIN KOT                              32.36.26N065.51.48E   IA     70107010
AF0100TQNL+0430     0000000000 0000000000        0000000000 0000000000        0000000000 0000000000 TALOQAN                                36.46.00N069.32.00E   IA     70107010
AF0100UNDL+0430     0000000000 0000000000        0000000000 0000000000        0000000000 0000000000 KUNDUZ                                 36.39.55N068.54.38E   IA     70107010
AF0100URNL+0430     0000000000 0000000000        0000000000 0000000000        0000000000 0000000000 URGUN                                  32.57.00N069.11.00E   IA     70107010
AF0100URZL+0430     0000000000 0000000000        0000000000 0000000000        0000000000 0000000000 URUZGAN                                32.54.00N066.37.00E   IA     70107010
AF0100ZAJL+0430     0000000000 0000000000        0000000000 0000000000        0000000000 0000000000 ZARANJ                                 30.58.17N061.51.59E   IA     70107010
AG0100ANUL-0400     0000000000 0000000000        0000000000 0000000000        0000000000 0000000000 ANTIGUA                                17.08.12N061.47.34W    A     20602060
AG0100BBQL-0400     0000000000 0000000000        0000000000 0000000000        0000000000 0000000000 BARBUDA                                17.38.10N061.49.38W   IA     20602060
AI0100AXAL-0400     0000000000 0000000000        0000000000 0000000000        0000000000 0000000000 ANGUILLA                               18.12.17N063.03.18W    A   LI20202020
AL0100DUHL+0100+02000200240331K0300241027K02+02000200250330K0300251026K03+02000200260329K0300261025KDURRES RAIL STATION                    41.19.04N019.27.17E   IR     40104010
AL0100KFZL+0100+02000200240331K0300241027K02+02000200250330K0300251026K03+02000200260329K0300261025KKUKES                                  42.02.09N020.25.02E   IA     40104010
AL0100TFAL+0100+02000200240331K0300241027K02+02000200250330K0300251026K03+02000200260329K0300261025KTIRANA BUS STATION                     41.20.02N019.48.08E   IB     40104010
AL0100TIAL+0100+02000200240331K0300241027K02+02000200250330K0300251026K03+02000200260329K0300261025KTIRANA                                 41.24.54N019.43.15E    A     40104010
AL0100VRRL+0100+02000200240331K0300241027K02+02000200250330K0300251026K03+02000200260329K0300261025KVLORE RAIL STATION                     40.27.58N019.28.57E   IR     40104010
AL0100XSAL+0100+02000200240331K0300241027K02+02000200250330K0300251026K03+02000200260329K0300261025KSARANDE BUS STATION                    39.52.32N020.00.23E   IB     40104010
AM0100EVNL+0400     0000000000 0000000000        0000000000 0000000000        0000000000 0000000000 YEREVAN                                40.08.50N044.23.45E    A     40504050
AM0100LWNL+0400     0000000000 0000000000        0000000000 0000000000        0000000000 0000000000 GYUMRI                                 40.45.01N043.51.34E   IA     40504050
AM0100YUKL+0400     0000000000 0000000000        0000000000 0000000000        0000000000 0000000000 KAPAN                                  39.12.11N046.27.15E   IA     40504050
AO0100ANLL+0100     0000000000 0000000000        0000000000 0000000000        0000000000 0000000000 ANDULO                                 11.30.00S016.45.00E   IA     50205020
AO0100ARZL+0100     0000000000 0000000000        0000000000 0000000000        0000000000 0000000000 N'ZETO                                 07.13.00S012.52.00E   IA     50205020
AO0100AZZL+0100     0000000000 0000000000        0000000000 0000000000        0000000000 0000000000 AMBRIZ                                 07.53.00S013.09.00E   IA     50205020
AO0100BUGL+0100     0000000000 0000000000        0000000000 0000000000        0000000000 0000000000 BENGUELA                               12.36.24S013.24.15E   IA     50205020
AO0100CABL+0100     0000000000 0000000000        0000000000 0000000000        0000000000 0000000000 CABINDA                                05.35.50S012.11.17E    A     50205020
AO0100CAVL+0100     0000000000 0000000000        0000000000 0000000000        0000000000 0000000000 CAZOMBO                                11.53.00S022.56.00E   IA     50205020
AO0100CBTL+0100     0000000000 0000000000        0000000000 0000000000        0000000000 0000000000 CATUMBELA                              12.28.53S013.29.13E    A     50205020
AO0100CEOL+0100     0000000000 0000000000        0000000000 0000000000        0000000000 0000000000 WACU-KUNGO                             11.27.00S015.05.00E   IA     50205020
AO0100CFFL+0100     0000000000 0000000000        0000000000 0000000000        0000000000 0000000000 CAFUNFO                                08.46.00S018.00.00E   IA     50205020
AO0100CNZL+0100     0000000000 0000000000        0000000000 0000000000        0000000000 0000000000 CANGAMBA                               13.41.00S019.53.00E   IA     50205020
AO0100CTIL+0100     0000000000 0000000000        0000000000 0000000000        0000000000 0000000000 CUITO CUANAVALE                        15.10.00S019.10.00E   IA     50205020
AO0100CTVL+0100     0000000000 0000000000        0000000000 0000000000        0000000000 0000000000 SAURIMO CATOCA                         09.25.57S020.18.43E   IA     50205020
AO0100DRCL+0100     0000000000 0000000000        0000000000 0000000000        0000000000 0000000000 DIRICO                                 17.58.00S020.47.00E   IA     50205020
AO0100DUEL+0100     0000000000 0000000000        0000000000 0000000000        0000000000 0000000000 DUNDO                                  07.24.02S020.49.08E    A     50205020
AO0100GGCL+0100     0000000000 0000000000        0000000000 0000000000        0000000000 0000000000 LUMBALA N' GUIMBO                      14.07.00S021.26.00E   IA     50205020
AO0100GXGL+0100     0000000000 0000000000        0000000000 0000000000        0000000000 0000000000 NEGAGE                                 07.45.19S015.17.17E   IA     50205020
AO0100JMBL+0100     0000000000 0000000000        0000000000 0000000000        0000000000 0000000000 JAMBA                                  14.42.01S016.05.00E   IA     50205020
AO0100KNPL+0100     0000000000 0000000000        0000000000 0000000000        0000000000 0000000000 CAPANDA                                09.46.01S015.27.01E   IA     50205020
AO0100LADL+0100     0000000000 0000000000        0000000000 0000000000        0000000000 0000000000 LUANDA                                 08.51.30S013.13.52E    A     50205020
AO0100LBZL+0100     0000000000 0000000000        0000000000 0000000000        0000000000 0000000000 LUCAPA                                 08.23.00S020.40.00E   IA     50205020
AO0100LLTL+0100     0000000000 0000000000        0000000000 0000000000        0000000000 0000000000 LOBITO                                 12.22.16S013.32.12E   IA     50205020
AO0100LUOL+0100     0000000000 0000000000        0000000000 0000000000        0000000000 0000000000 LUENA                                  11.46.02S019.53.38E    A     50205020
AO0100LZML+0100     0000000000 0000000000        0000000000 0000000000        0000000000 0000000000 LUZAMBA                                09.03.00S018.05.00E   IA     50205020
AO0100MEGL+0100     0000000000 0000000000        0000000000 0000000000        0000000000 0000000000 MALANGE                                09.31.31S016.18.47E   IA     50205020
AO0100MSZL+0100     0000000000 0000000000        0000000000 0000000000        0000000000 0000000000 NAMIBE                                 15.15.42S012.08.50E    A     50205020
AO0100NBJL+0100     0000000000 0000000000        0000000000 0000000000        0000000000 0000000000 LUANDA                                 09.02.45S013.29.26E   IA     50205020
AO0100NDDL+0100     0000000000 0000000000        0000000000 0000000000        0000000000 0000000000 SUMBE                                  11.10.00S013.52.00E   IA     50205020
AO0100NDFL+0100     0000000000 0000000000        0000000000 0000000000        0000000000 0000000000 N'DALATANDO                            09.20.00S014.50.00E   IA     50205020
AO0100NOVL+0100     0000000000 0000000000        0000000000 0000000000        0000000000 0000000000 HUAMBO                                 12.48.33S015.45.39E    A     50205020
AO0100NZAL+0100     0000000000 0000000000        0000000000 0000000000        0000000000 0000000000 NZAGI                                  08.23.00S021.26.00E   IA     50205020
AO0100PBNL+0100     0000000000 0000000000        0000000000 0000000000        0000000000 0000000000 PORTO AMBOIM                           10.43.00S013.45.00E   IA     50205020
AO0100PGIL+0100     0000000000 0000000000        0000000000 0000000000        0000000000 0000000000 CHITATO                                07.21.00S020.57.00E   IA     50205020
AO0100SDDL+0100     0000000000 0000000000        0000000000 0000000000        0000000000 0000000000 LUBANGO                                14.55.29S013.34.30E    A     50205020
AO0100SPPL+0100     0000000000 0000000000        0000000000 0000000000        0000000000 0000000000 MENONGUE                               14.39.31S017.43.17E    A     50205020
AO0100SSYL+0100     0000000000 0000000000        0000000000 0000000000        0000000000 0000000000 M'BANZA CONGO                          06.16.11S014.14.50E   IA     50205020
AO0100SVPL+0100     0000000000 0000000000        0000000000 0000000000        0000000000 0000000000 KUITO                                  12.24.16S016.56.54E   IA     50205020
AO0100SZAL+0100     0000000000 0000000000        0000000000 0000000000        0000000000 0000000000 SOYO                                   06.08.28S012.22.21E    A     50205020
AO0100UALL+0100     0000000000 0000000000        0000000000 0000000000        0000000000 0000000000 LUAU                                   10.42.53S022.13.50E   IA     50205020
AO0100UGOL+0100     0000000000 0000000000        0000000000 0000000000        0000000000 0000000000 UIGE                                   07.36.05S015.01.41E   IA     50205020
AO0100VHCL+0100     0000000000 0000000000        0000000000 0000000000        0000000000 0000000000 SAURIMO                                09.41.21S020.25.54E    A     50205020
AO0100VPEL+0100     0000000000 0000000000        0000000000 0000000000        0000000000 0000000000 ONDJIVA                                17.02.38S015.41.05E    A     50205020
AO0100XGNL+0100     0000000000 0000000000        0000000000 0000000000        0000000000 0000000000 XANGONGO                               16.45.00S014.58.02E   IA     50205020
AQ0100TNML-0400     0000000000 0000000000        0000000000 0000000000        0000000000 0000000000 KING GEORGE ISLAND                     62.11.00S058.59.00W   IA     80108010
AQ0100UGLL-0400     0000000000 0000000000        0000000000 0000000000        0000000000 0000000000 ANTARCTICA                             79.46.32S083.18.10W   IA     80108010
AR01BAAEPA-0300     0000000000 0000000000        0000000000 0000000000        0000000000 0000000000 BUENOS AIRES AEROPARQUE J. NEWBERY     34.33.32S058.24.59WBUE A     30303030
AR01BABBEA-0300     0000000000 0000000000        0000000000 0000000000        0000000000 0000000000 BUENOS AIRES FLUVIAL BUS STATION       34.37.37S058.21.32WBUEIB     30303030
AR01BABHIL-0300     0000000000 0000000000        0000000000 0000000000        0000000000 0000000000 BAHIA BLANCA                           38.43.38S062.09.12W    A     30303030
AR01BABUEM-0300     0000000000 0000000000        0000000000 0000000000        0000000000 0000000000 BUENOS AIRES                           34.34.20S058.22.13W          30303030
AR01BACPGL-0300     0000000000 0000000000        0000000000 0000000000        0000000000 0000000000 CARMEN DE PATAGONES                    40.48.00S062.59.00W   IA     30303030
AR01BACSZL-0300     0000000000 0000000000        0000000000 0000000000        0000000000 0000000000 CORONEL SUAREZ                         37.26.47S061.53.22W   IA     30303030
AR01BAEPAL-0300     0000000000 0000000000        0000000000 0000000000        0000000000 0000000000 EL PALOMAR                             34.36.36S058.36.45W   IA     30303030
AR01BAEZEA-0300     0000000000 0000000000        0000000000 0000000000        0000000000 0000000000 BUENOS AIRES MINISTRO PISTARINI        34.49.20S058.32.09WBUE A     30303030
AR01BAJNIL-0300     0000000000 0000000000        0000000000 0000000000        0000000000 0000000000 JUNIN                                  34.35.00S060.58.00W   IA     30303030
AR01BALPGL-0300     0000000000 0000000000        0000000000 0000000000        0000000000 0000000000 LA PLATA                               34.55.00S057.57.00W   IA     30303030
AR01BAMDQL-0300     0000000000 0000000000        0000000000 0000000000        0000000000 0000000000 MAR DEL PLATA                          37.56.03S057.34.24W    A     30303030
AR01BAMJRL-0300     0000000000 0000000000        0000000000 0000000000        0000000000 0000000000 MIRAMAR                                38.16.00S057.51.00W   IA     30303030
AR01BANECL-0300     0000000000 0000000000        0000000000 0000000000        0000000000 0000000000 NECOCHEA                               38.29.20S058.48.57W   IA     30303030
AR01BAOVRL-0300     0000000000 0000000000        0000000000 0000000000        0000000000 0000000000 OLAVARRIA                              36.53.20S060.13.40W   IA     30303030
AR01BAOYOL-0300     0000000000 0000000000        0000000000 0000000000        0000000000 0000000000 TRES ARROYOS                           38.22.00S060.15.00W   IA     30303030
AR01BAPEHL-0300     0000000000 0000000000        0000000000 0000000000        0000000000 0000000000 PEHUAJO                                35.48.00S061.53.00W   IA     30303030
AR01BAQLVL-0300     0000000000 0000000000        0000000000 0000000000        0000000000 0000000000 OLIVOS OFF-LINE POINT                  34.30.38S058.29.51W   IO     30303030
AR01BAQPQL-0300     0000000000 0000000000        0000000000 0000000000        0000000000 0000000000 PINAMAR OFF-LINE PT                    37.07.00S056.51.00W   IO     30303030
AR01BAQRFL-0300     0000000000 0000000000        0000000000 0000000000        0000000000 0000000000 BRAGADO OFF-LINE POINT                 35.07.00S060.29.28W   IO     30303030
AR01BASSTL-0300     0000000000 0000000000        0000000000 0000000000        0000000000 0000000000 SANTA TERESITA                         36.32.32S059.43.17W   IA     30303030
AR01BASZQL-0300     0000000000 0000000000        0000000000 0000000000        0000000000 0000000000 SAENZ PENA                             34.37.00S058.32.00W   IO     30303030
AR01BATDLL-0300     0000000000 0000000000        0000000000 0000000000        0000000000 0000000000 TANDIL                                 37.14.00S059.12.00W   IA     30303030
AR01BAVGSL-0300     0000000000 0000000000        0000000000 0000000000        0000000000 0000000000 GENERAL VILLEGAS                       35.02.00S063.01.00W   IA     30303030
AR01BAVLGL-0300     0000000000 0000000000        0000000000 0000000000        0000000000 0000000000 VILLA GESELL                           37.14.07S057.01.47W   IA     30303030
AR01CACTCL-0300     0000000000 0000000000        0000000000 0000000000        0000000000 0000000000 CATAMARCA                              28.35.35S065.45.04W    A     30303030
AR01CBARRL-0300     0000000000 0000000000        0000000000 0000000000        0000000000 0000000000 ALTO RIO SENGUER                       45.08.10S070.48.44W   IA     30303030
AR01CBCRDL-0300     0000000000 0000000000        0000000000 0000000000        0000000000 0000000000 COMODORO RIVADAVIA                     45.47.07S067.27.56W    A     30303030
AR01CBEMXL-0300     0000000000 0000000000        0000000000 0000000000        0000000000 0000000000 EL MAITEN                              42.04.05S071.09.20W   IA     30303030
AR01CBEQSL-0300     0000000000 0000000000        0000000000 0000000000        0000000000 0000000000 ESQUEL                                 42.54.14S071.08.08W    A     30303030
AR01CBJSML-0300     0000000000 0000000000        0000000000 0000000000        0000000000 0000000000 JOSE DE SAN MARTIN                     44.02.00S070.28.00W   IA     30303030
AR01CBOLNL-0300     0000000000 0000000000        0000000000 0000000000        0000000000 0000000000 SARMIENTO                              45.35.00S069.00.00W   IA     30303030
AR01CBPMYL-0300     0000000000 0000000000        0000000000 0000000000        0000000000 0000000000 PUERTO MADRYN                          42.45.33S065.06.10W    A     30303030
AR01CBRELL-0300     0000000000 0000000000        0000000000 0000000000        0000000000 0000000000 TRELEW                                 43.12.38S065.16.13W    A     30303030
AR01CBROYL-0300     0000000000 0000000000        0000000000 0000000000        0000000000 0000000000 RIO MAYO                               45.42.17S070.15.31W   IA     30303030
AR01CDCORL-0300     0000000000 0000000000        0000000000 0000000000        0000000000 0000000000 CORDOBA                                31.18.36S064.12.30W    A     30303030
AR01CDLCML-0300     0000000000 0000000000        0000000000 0000000000        0000000000 0000000000 LA CUMBRE                              31.00.22S064.31.55W   IA     30303030
AR01CDRCUL-0300     0000000000 0000000000        0000000000 0000000000        0000000000 0000000000 RIO CUARTO                             33.05.40S064.15.41W    A     30303030
AR01CDVDRL-0300     0000000000 0000000000        0000000000 0000000000        0000000000 0000000000 VILLA DOLORES                          31.57.00S065.09.00W   IA     30303030
AR01CHCNTL-0300     0000000000 0000000000        0000000000 0000000000        0000000000 0000000000 CHARATA                                27.13.00S061.13.00W   IA     30303030
AR01CHPRQL-0300     0000000000 0000000000        0000000000 0000000000        0000000000 0000000000 PRESIDENT ROQUE SAENZ PENA             26.45.13S060.29.32W   IA     30303030
AR01CHRESL-0300     0000000000 0000000000        0000000000 0000000000        0000000000 0000000000 RESISTENCIA                            27.27.00S059.03.22W    A     30303030
AR01CRAOLL-0300     0000000000 0000000000        0000000000 0000000000        0000000000 0000000000 PASO DE LOS LIBRES                     29.41.00S057.09.00W   IA     30303030
AR01CRCNQL-0300     0000000000 0000000000        0000000000 0000000000        0000000000 0000000000 CORRIENTES                             27.26.44S058.45.43W    A     30303030
AR01CRMCSL-0300     0000000000 0000000000        0000000000 0000000000        0000000000 0000000000 MONTE CASEROS                          30.16.00S057.38.00W   IA     30303030
AR01CRMDXL-0300     0000000000 0000000000        0000000000 0000000000        0000000000 0000000000 MERCEDES                               29.13.01S058.05.00W   IA     30303030
AR01CROYAL-0300     0000000000 0000000000        0000000000 0000000000        0000000000 0000000000 GOYA                                   29.06.22S059.13.09W   IA     30303030
AR01CRUZUL-0300     0000000000 0000000000        0000000000 0000000000        0000000000 0000000000 CURUZU CUATIA                          29.47.00S058.01.00W   IA     30303030
AR01ERCOCL-0300     0000000000 0000000000        0000000000 0000000000        0000000000 0000000000 CONCORDIA                              31.18.00S058.01.00W   IA     30303030
AR01ERGHUL-0300     0000000000 0000000000        0000000000 0000000000        0000000000 0000000000 GUALEGUAYCHU                           33.01.00S058.35.00W   IA     30303030
AR01ERPRAL-0300     0000000000 0000000000        0000000000 0000000000        0000000000 0000000000 PARANA                                 31.47.37S060.28.52W    A     30303030
AR01FOCLXL-0300     0000000000 0000000000        0000000000 0000000000        0000000000 0000000000 CLORINDA                               25.20.00S057.40.00W   IA     30303030
AR01FOFMAL-0300     0000000000 0000000000        0000000000 0000000000        0000000000 0000000000 FORMOSA                                26.12.46S058.13.41W    A     30303030
AR01FOLLSL-0300     0000000000 0000000000        0000000000 0000000000        0000000000 0000000000 LAS LOMITAS                            24.42.00S060.36.00W   IA     30303030
AR01LPGPOL-0300     0000000000 0000000000        0000000000 0000000000        0000000000 0000000000 GENERAL PICO                           35.42.00S063.45.00W   IA     30303030
AR01LPRSAL-0300     0000000000 0000000000        0000000000 0000000000        0000000000 0000000000 SANTA ROSA                             36.35.18S064.16.33W    A     30303030
AR01LRIRJL-0300     0000000000 0000000000        0000000000 0000000000        0000000000 0000000000 LA RIOJA                               29.22.50S066.47.45W    A     30303030
AR01MDAFAL-0300     0000000000 0000000000        0000000000 0000000000        0000000000 0000000000 SAN RAFAEL                             34.35.19S068.24.10W    A     30303030
AR01MDLGSL-0300     0000000000 0000000000        0000000000 0000000000        0000000000 0000000000 MALARGUE                               35.29.43S069.34.23W   IA     30303030
AR01MDMDZL-0300     0000000000 0000000000        0000000000 0000000000        0000000000 0000000000 MENDOZA                                32.49.54S068.47.34W    A     30303030
AR01MIELOL-0300     0000000000 0000000000        0000000000 0000000000        0000000000 0000000000 ELDORADO                               26.24.00S054.38.00W   IA     30303030
AR01MIIGRL-0300     0000000000 0000000000        0000000000 0000000000        0000000000 0000000000 IGUAZU                                 25.44.14S054.28.24W    A     30303030
AR01MIPSSL-0300     0000000000 0000000000        0000000000 0000000000        0000000000 0000000000 POSADAS                                27.23.09S055.58.14W    A     30303030
AR01NEAPZL-0300     0000000000 0000000000        0000000000 0000000000        0000000000 0000000000 ZAPALA                                 38.55.00S070.05.00W   IA     30303030
AR01NECPCL-0300     0000000000 0000000000        0000000000 0000000000        0000000000 0000000000 SAN MARTIN LOS ANDES                   40.04.31S071.08.14W    A     30303030
AR01NECUTL-0300     0000000000 0000000000        0000000000 0000000000        0000000000 0000000000 CUTRAL-CO                              38.58.00S069.15.00W   IA     30303030
AR01NECVHL-0300     0000000000 0000000000        0000000000 0000000000        0000000000 0000000000 CAVIAHUE                               37.55.00S071.00.50W   IA     30303030
AR01NEHOSL-0300     0000000000 0000000000        0000000000 0000000000        0000000000 0000000000 CHOS MALAL                             37.25.00S070.13.00W   IA     30303030
AR01NELCPL-0300     0000000000 0000000000        0000000000 0000000000        0000000000 0000000000 LONCOPUE                               38.05.00S070.40.00W   IA     30303030
AR01NENQNL-0300     0000000000 0000000000        0000000000 0000000000        0000000000 0000000000 NEUQUEN                                38.56.56S068.09.21W    A     30303030
AR01NERDSL-0300     0000000000 0000000000        0000000000 0000000000        0000000000 0000000000 RINCON DE LOS SAUCES                   37.23.00S068.54.00W   IA     30303030
AR01PJJUJL-0300     0000000000 0000000000        0000000000 0000000000        0000000000 0000000000 JUJUY                                  24.23.34S065.05.52W    A     30303030
AR01PJXMXL-0300     0000000000 0000000000        0000000000 0000000000        0000000000 0000000000 LEDESMA OFF-LINE POINT                 23.50.00S064.45.00W   IO     30303030
AR01PJXPDL-0300     0000000000 0000000000        0000000000 0000000000        0000000000 0000000000 SAN PEDRO OFF-LINE POINT               24.12.00S064.55.00W   IO     30303030
AR01RNBRCL-0300     0000000000 0000000000        0000000000 0000000000        0000000000 0000000000 SAN CARLOS BARILOCHE                   41.09.04S071.09.28W    A     30303030
AR01RNCCTL-0300     0000000000 0000000000        0000000000 0000000000        0000000000 0000000000 CATRIEL                                37.51.00S067.52.00W   IA     30303030
AR01RNCPZL-0300     0000000000 0000000000        0000000000 0000000000        0000000000 0000000000 CIPOLLETTI RN BUS STATION              38.56.28S068.00.27W   IB     30303030
AR01RNEHLL-0300     0000000000 0000000000        0000000000 0000000000        0000000000 0000000000 EL BOLSON                              41.58.00S071.31.00W   IA     30303030
AR01RNGNRL-0300     0000000000 0000000000        0000000000 0000000000        0000000000 0000000000 GENERAL ROCA                           39.02.00S067.35.00W   IA     30303030
AR01RNIGBL-0300     0000000000 0000000000        0000000000 0000000000        0000000000 0000000000 INGENIERO JACOBACCI                    41.18.00S069.35.00W   IA     30303030
AR01RNLLZL-0300     0000000000 0000000000        0000000000 0000000000        0000000000 0000000000 ALLEN RN BUS STATION                   38.58.57S067.49.35W   IB     30303030
AR01RNLMDL-0300     0000000000 0000000000        0000000000 0000000000        0000000000 0000000000 LOS MENUCOS                            40.50.00S068.08.00W   IA     30303030
AR01RNMQDL-0300     0000000000 0000000000        0000000000 0000000000        0000000000 0000000000 MAQUINCHAO                             41.15.00S068.44.00W   IA     30303030
AR01RNOESL-0300     0000000000 0000000000        0000000000 0000000000        0000000000 0000000000 SAN ANTONIO OESTE                      40.45.02S065.02.07W   IA     30303030
AR01RNSGVL-0300     0000000000 0000000000        0000000000 0000000000        0000000000 0000000000 SIERRA GRANDE                          41.30.00S065.21.00W   IA     30303030
AR01RNVCFL-0300     0000000000 0000000000        0000000000 0000000000        0000000000 0000000000 VALCHETA                               40.42.00S066.09.00W   IA     30303030
AR01RNVDML-0300     0000000000 0000000000        0000000000 0000000000        0000000000 0000000000 VIEDMA                                 40.52.13S062.59.48W    A     30303030
AR01SAORAL-0300     0000000000 0000000000        0000000000 0000000000        0000000000 0000000000 ORAN                                   23.09.00S064.19.00W   IA     30303030
AR01SASLAL-0300     0000000000 0000000000        0000000000 0000000000        0000000000 0000000000 SALTA                                  24.51.35S065.29.13W    A     30303030
AR01SATTGL-0300     0000000000 0000000000        0000000000 0000000000        0000000000 0000000000 TARTAGAL                               22.31.00S063.47.00W   IA     30303030
AR01SAXMVL-0300     0000000000 0000000000        0000000000 0000000000        0000000000 0000000000 PICHANAL OFF-LINE-POINT                23.18.00S064.10.00W   IO     30303030
AR01SAXOSL-0300     0000000000 0000000000        0000000000 0000000000        0000000000 0000000000 MOSCONI OFF-LINE POINT                 35.44.00S060.34.00W   IO     30303030
AR01SAZAIL-0300     0000000000 0000000000        0000000000 0000000000        0000000000 0000000000 EMBARCACION OFF-LINE POINT             23.15.00S064.05.00W   IO     30303030
AR01SCCVIL-0300     0000000000 0000000000        0000000000 0000000000        0000000000 0000000000 CALETA OLIVIA                          46.26.00S067.31.00W   IA     30303030
AR01SCFTEL-0300     0000000000 0000000000        0000000000 0000000000        0000000000 0000000000 EL CALAFATE                            50.16.48S072.03.12W    A     30303030
AR01SCGGSL-0300     0000000000 0000000000        0000000000 0000000000        0000000000 0000000000 GOBERNADOR GREGORES                    48.46.55S070.09.20W   IA     30303030
AR01SCLHSL-0300     0000000000 0000000000        0000000000 0000000000        0000000000 0000000000 LAS HERAS                              46.32.00S068.57.00W   IA     30303030
AR01SCPMQL-0300     0000000000 0000000000        0000000000 0000000000        0000000000 0000000000 PERITO MORENO                          46.32.17S070.58.43W   IA     30303030
AR01SCPUDL-0300     0000000000 0000000000        0000000000 0000000000        0000000000 0000000000 PUERTO DESEADO                         47.44.05S065.54.12W   IA     30303030
AR01SCRGLL-0300     0000000000 0000000000        0000000000 0000000000        0000000000 0000000000 RIO GALLEGOS                           51.36.32S069.18.46W    A     30303030
AR01SCRYOL-0300     0000000000 0000000000        0000000000 0000000000        0000000000 0000000000 RIO TURBIO                             51.36.00S072.13.00W   IA     30303030
AR01SCRZAL-0300     0000000000 0000000000        0000000000 0000000000        0000000000 0000000000 PUERTO SANTA CRUZ                      50.01.04S068.34.49W   IA     30303030
AR01SCULAL-0300     0000000000 0000000000        0000000000 0000000000        0000000000 0000000000 SAN JULIAN                             49.18.24S067.48.10W   IA     30303030
AR01SERHDL-0300     0000000000 0000000000        0000000000 0000000000        0000000000 0000000000 TERMAS DE RIO HONDO                    27.28.25S064.54.24W    A     30303030
AR01SESDEL-0300     0000000000 0000000000        0000000000 0000000000        0000000000 0000000000 SANTIAGO DEL ESTERO                    27.45.56S064.18.36W    A     30303030
AR01SFCRRL-0300     0000000000 0000000000        0000000000 0000000000        0000000000 0000000000 CERES                                  29.52.00S061.50.00W   IA     30303030
AR01SFNCJL-0300     0000000000 0000000000        0000000000 0000000000        0000000000 0000000000 SUNCHALES                              30.57.28S061.31.30W   IA     30303030
AR01SFRAFL-0300     0000000000 0000000000        0000000000 0000000000        0000000000 0000000000 RAFAELA                                31.16.57S061.30.06W   IA     30303030
AR01SFRCQL-0300     0000000000 0000000000        0000000000 0000000000        0000000000 0000000000 RECONQUISTA                            29.12.38S059.41.27W    A     30303030
AR01SFROSL-0300     0000000000 0000000000        0000000000 0000000000        0000000000 0000000000 ROSARIO                                32.54.13S060.47.04W    A     30303030
AR01SFSFNL-0300     0000000000 0000000000        0000000000 0000000000        0000000000 0000000000 SANTA FE                               31.42.39S060.48.41W    A     30303030
AR01SJUAQL-0300     0000000000 0000000000        0000000000 0000000000        0000000000 0000000000 SAN JUAN                               31.34.17S068.25.06W    A     30303030
AR01SLLUQL-0300     0000000000 0000000000        0000000000 0000000000        0000000000 0000000000 SAN LUIS                               33.16.20S066.21.24W    A     30303030
AR01SLRLOL-0300     0000000000 0000000000        0000000000 0000000000        0000000000 0000000000 MERLO                                  32.23.04S065.11.07W    A     30303030
AR01SLVMEL-0300     0000000000 0000000000        0000000000 0000000000        0000000000 0000000000 VILLA MERCEDES                         33.43.31S065.22.41W   IA     30303030
AR01TFRGAL-0300     0000000000 0000000000        0000000000 0000000000        0000000000 0000000000 RIO GRANDE                             53.46.39S067.45.00W    A     30303030
AR01TFUSHL-0300     0000000000 0000000000        0000000000 0000000000        0000000000 0000000000 USHUAIA                                54.50.36S068.17.44W    A     30303030
AR01TUTUCL-0300     0000000000 0000000000        0000000000 0000000000        0000000000 0000000000 TUCUMAN                                26.50.27S065.06.17W    A     30303030
AS0100FTIL-1100     0000000000 0000000000        0000000000 0000000000        0000000000 0000000000 FITIUTA                                14.12.59S169.25.25W   IA     00570057
AS0100OFUL-1100     0000000000 0000000000        0000000000 0000000000        0000000000 0000000000 OFU ISLAND                             14.11.04S169.40.13W   IA     00570057
AS0100PPGL-1100     0000000000 0000000000        0000000000 0000000000        0000000000 0000000000 PAGO PAGO                              14.20.01S170.42.45W    A     00570057
AS0100TAVL-1100     0000000000 0000000000        0000000000 0000000000        0000000000 0000000000 TAU                                    14.15.00S169.30.00W   IA     00570057
AT0100ANTL+0100+02000200240331K0300241027K02+02000200250330K0300251026K03+02000200260329K0300261025KST ANTON                               47.07.15N010.14.30E   IA     40304030
AT0100GGZL+0100+02000200240331K0300241027K02+02000200250330K0300251026K03+02000200260329K0300261025KGRAZ RAIL STATION                      47.04.23N015.24.58E    R     40304030
AT0100GRZL+0100+02000200240331K0300241027K02+02000200250330K0300251026K03+02000200260329K0300261025KGRAZ                                   46.59.37N015.26.24E    A     40304030
AT0100HOHL+0100+02000200240331K0300241027K02+02000200250330K0300251026K03+02000200260329K0300261025KHOHENEMS/DORNBIRN                      47.23.04N009.41.59E    A     40304030
AT0100INNA+0100+02000200240331K0300241027K02+02000200250330K0300251026K03+02000200260329K0300261025KINNSBRUCK AIRPORT                      47.15.37N011.20.38EINN A     40304030
AT0100INNM+0100+02000200240331K0300241027K02+02000200250330K0300251026K03+02000200260329K0300261025KINNSBRUCK                              47.16.01N011.23.00E          40304030
AT0100IOBA+0100+02000200240331K0300241027K02+02000200250330K0300251026K03+02000200260329K0300261025KINNSBRUCK RAIL STATION                 47.15.46N011.24.04EINN R     40304030
AT0100KGVL+0100+02000200240331K0300241027K02+02000200250330K0300251026K03+02000200260329K0300261025KKLAGENFURT RAIL STATION                46.36.56N014.18.48E    R     40304030
AT0100KLUL+0100+02000200240331K0300241027K02+02000200250330K0300251026K03+02000200260329K0300261025KKLAGENFURT                             46.38.34N014.20.16E    A     40304030
AT0100LNZA+0100+02000200240331K0300241027K02+02000200250330K0300251026K03+02000200260329K0300261025KLINZ BLUE DANUBE                       48.14.00N014.11.15ELNZ A     40304030
AT0100LNZM+0100+02000200240331K0300241027K02+02000200250330K0300251026K03+02000200260329K0300261025KLINZ                                   48.14.01N014.11.15E          40304030
AT0100LZSA+0100+02000200240331K0300241027K02+02000200250330K0300251026K03+02000200260329K0300261025KLINZ RAIL STATION                      48.17.26N014.17.28ELNZ R     40304030
AT0100POKL+0100+02000200240331K0300241027K02+02000200250330K0300251026K03+02000200260329K0300261025KST POELTEN RAIL STATION                48.12.30N015.37.28E    R     40304030
AT0100QDIL+0100+02000200240331K0300241027K02+02000200250330K0300251026K03+02000200260329K0300261025KHOHENEMS/DORNBIRN BUS STATION          47.25.00N009.43.59E   IB     40304030
AT0100QLXL+0100+02000200240331K0300241027K02+02000200250330K0300251026K03+02000200260329K0300261025KLAUTERACH OFF-LINE POINT               47.29.00N009.44.00E   IO     40304030
AT0100QVLL+0100+02000200240331K0300241027K02+02000200250330K0300251026K03+02000200260329K0300261025KVILLACH RAIL STATION                   46.37.08N013.50.56E   IR     40304030
AT0100QXZL+0100+02000200240331K0300241027K02+02000200250330K0300251026K03+02000200260329K0300261025KWOERGL BUS STATION                     47.29.29N012.03.40E   IB     40304030
AT0100SZGA+0100+02000200240331K0300241027K02+02000200250330K0300251026K03+02000200260329K0300261025KSALZBURG W A MOZART                    47.47.36N013.00.16ESZG A     40304030
AT0100SZGM+0100+02000200240331K0300241027K02+02000200250330K0300251026K03+02000200260329K0300261025KSALZBURG                               47.47.37N013.00.16E          40304030
AT0100VIEA+0100+02000200240331K0300241027K02+02000200250330K0300251026K03+02000200260329K0300261025KVIENNA INTERNATIONAL                   48.06.37N016.34.41EVIE A     40304030
AT0100VIEM+0100+02000200240331K0300241027K02+02000200250330K0300251026K03+02000200260329K0300261025KVIENNA                                 48.06.37N016.34.41E          40304030
AT0100XGZL+0100+02000200240331K0300241027K02+02000200250330K0300251026K03+02000200260329K0300261025KBREGENZ RAIL STATION                   47.30.23N009.44.55E    R     40304030
AT0100XJSL+0100+02000200240331K0300241027K02+02000200250330K0300251026K03+02000200260329K0300261025KKITZBUEHEL RAIL STATION                47.27.20N012.23.35E   IR     40304030
AT0100XOHL+0100+02000200240331K0300241027K02+02000200250330K0300251026K03+02000200260329K0300261025KKITZBUEHEL BUS STATION                 47.26.53N012.23.21E   IB     40304030
AT0100XOIL+0100+02000200240331K0300241027K02+02000200250330K0300251026K03+02000200260329K0300261025KISCHGL BUS STATION                     47.00.42N010.17.27E   IB     40304030
AT0100XOOL+0100+02000200240331K0300241027K02+02000200250330K0300251026K03+02000200260329K0300261025KSOELDEN BUS STATION                    46.58.04N011.00.25E   IB     40304030
AT0100XOVL+0100+02000200240331K0300241027K02+02000200250330K0300251026K03+02000200260329K0300261025KST ANTON BUS STATION                   47.07.53N010.16.10E   IB     40304030
AT0100XOWL+0100+02000200240331K0300241027K02+02000200250330K0300251026K03+02000200260329K0300261025KSEEFELD BUS STATION                    47.19.43N011.11.11E   IB     40304030
AT0100XWCL+0100+02000200240331K0300241027K02+02000200250330K0300251026K03+02000200260329K0300261025KVIENNA HAUPTBAHNHOF RAIL STATION       48.11.07N016.22.36E    R     40304030
AT0100XWTL+0100+02000200240331K0300241027K02+02000200250330K0300251026K03+02000200260329K0300261025KVIENNA MITTE CAT RAIL STATION          48.12.26N016.23.05E   IR     40304030
AT0100XWWA+0100+02000200240331K0300241027K02+02000200250330K0300251026K03+02000200260329K0300261025KVIENNA WESTBAHNHOF RAIL STATION        48.11.48N016.20.14EVIE R     40304030
AT0100ZRSL+0100+02000200240331K0300241027K02+02000200250330K0300251026K03+02000200260329K0300261025KZUERS/LECH                             47.11.11N010.09.45E   IA     40304030
AT0100ZSBA+0100+02000200240331K0300241027K02+02000200250330K0300251026K03+02000200260329K0300261025KSALZBURG HBF RAIL STATION              47.48.47N013.02.45ESZG R     40304030
AU01NSLDHL+1030+11000200231001K0200240407K02+11000200241007K0200250406K03+11000200251005K0200260405KLORD HOWE ISLAND                       31.32.19S159.04.34E    A     80208020
AU02ACCBRL+1000+11000200231001K0300240407K02+11000200241006K0300250406K03+11000200251005K0300260405KCANBERRA                               35.18.25S149.11.42E    A     80208020
AU02NSABXL+1000+11000200231001K0300240407K02+11000200241006K0300250406K03+11000200251005K0300260405KALBURY                                 36.04.04S146.57.29E    A     80208020
AU02NSARML+1000+11000200231001K0300240407K02+11000200241006K0300250406K03+11000200251005K0300260405KARMIDALE                               30.31.41S151.37.02E    A     80208020
AU02NSBEOA+1000+11000200231001K0300240407K02+11000200241006K0300250406K03+11000200251005K0300260405KNEWCASTLE AEROPELICAN APT              33.02.00S151.40.00ENTLIA     80208020
AU02NSBHSL+1000+11000200231001K0300240407K02+11000200241006K0300250406K03+11000200251005K0300260405KBATHURST                               33.24.34S149.39.07E   IA     80208020
AU02NSBNKL+1000+11000200231001K0300240407K02+11000200241006K0300250406K03+11000200251005K0300260405KBALLINA                                28.50.02S153.33.45E    A     80208020
AU02NSBRKL+1000+11000200231001K0300240407K02+11000200241006K0300250406K03+11000200251005K0300260405KBOURKE                                 30.02.26S145.56.48E    A     80208020
AU02NSBWQL+1000+11000200231001K0300240407K02+11000200241006K0300250406K03+11000200251005K0300260405KBREWARRINA                             29.58.00S146.49.00E   IA     80208020
AU02NSBWUA+1000+11000200231001K0300240407K02+11000200241006K0300250406K03+11000200251005K0300260405KSYDNEY BANKSTOWN                       33.55.24S150.59.25ESYDIA     80208020
AU02NSBZDL+1000+11000200231001K0300240407K02+11000200241006K0300250406K03+11000200251005K0300260405KBALRANALD                              34.38.00S143.33.00E   IA     80208020
AU02NSCAZL+1000+11000200231001K0300240407K02+11000200241006K0300250406K03+11000200251005K0300260405KCOBAR                                  31.32.15S145.47.40E    A     80208020
AU02NSCBXL+1000+11000200231001K0300240407K02+11000200241006K0300250406K03+11000200251005K0300260405KCONDOBOLIN                             33.04.00S147.12.00E   IA     80208020
AU02NSCDUL+1000+11000200231001K0300240407K02+11000200241006K0300250406K03+11000200251005K0300260405KCAMDEN                                 34.03.00S150.42.00E   IA     80208020
AU02NSCESL+1000+11000200231001K0300240407K02+11000200241006K0300250406K03+11000200251005K0300260405KCESSNOCK                               32.47.06S151.20.25E   IA     80208020
AU02NSCFSL+1000+11000200231001K0300240407K02+11000200241006K0300250406K03+11000200251005K0300260405KCOFFS HARBOUR                          30.19.14S153.06.59E    A     80208020
AU02NSCLHL+1000+11000200231001K0300240407K02+11000200241006K0300250406K03+11000200251005K0300260405KCOOLAH                                 31.50.00S149.42.00E   IA     80208020
AU02NSCMDL+1000+11000200231001K0300240407K02+11000200241006K0300250406K03+11000200251005K0300260405KCOOTAMUNDRA                            34.38.00S148.03.00E   IA     80208020
AU02NSCNBL+1000+11000200231001K0300240407K02+11000200241006K0300250406K03+11000200251005K0300260405KCOONAMBLE                              30.59.00S148.23.00E   IA     80208020
AU02NSCOJL+1000+11000200231001K0300240407K02+11000200241006K0300250406K03+11000200251005K0300260405KCOONABARABRAN                          31.20.00S149.16.00E   IA     80208020
AU02NSCRBL+1000+11000200231001K0300240407K02+11000200241006K0300250406K03+11000200251005K0300260405KCOLLARENEBRI                           29.31.33S148.34.33E   IA     80208020
AU02NSCSIL+1000+11000200231001K0300240407K02+11000200241006K0300250406K03+11000200251005K0300260405KCASINO                                 28.53.00S153.04.00E   IA     80208020
AU02NSCUGL+1000+11000200231001K0300240407K02+11000200241006K0300250406K03+11000200251005K0300260405KCUDAL                                  33.16.00S148.46.00E   IA     80208020
AU02NSCWTL+1000+11000200231001K0300240407K02+11000200241006K0300250406K03+11000200251005K0300260405KCOWRA                                  33.51.00S148.39.00E   IA     80208020
AU02NSCWWL+1000+11000200231001K0300240407K02+11000200241006K0300250406K03+11000200251005K0300260405KCOROWA                                 35.59.00S146.21.00E   IA     80208020
AU02NSDBOL+1000+11000200231001K0300240407K02+11000200241006K0300250406K03+11000200251005K0300260405KDUBBO                                  32.13.08S148.34.32E    A     80208020
AU02NSDGEL+1000+11000200231001K0300240407K02+11000200241006K0300250406K03+11000200251005K0300260405KMUDGEE                                 32.33.54S149.36.34E    A     80208020
AU02NSDNQL+1000+11000200231001K0300240407K02+11000200241006K0300250406K03+11000200251005K0300260405KDENILIQUIN                             35.33.00S144.57.00E   IA     80208020
AU02NSEVHL+1000+11000200231001K0300240407K02+11000200241006K0300250406K03+11000200251005K0300260405KEVANS HEAD                             29.06.00S153.25.00E   IA     80208020
AU02NSFLYL+1000+11000200231001K0300240407K02+11000200241006K0300250406K03+11000200251005K0300260405KFINLEY                                 35.39.00S145.35.00E   IA     80208020
AU02NSFOTL+1000+11000200231001K0300240407K02+11000200241006K0300250406K03+11000200251005K0300260405KFORSTER                                32.11.00S152.31.00E   IA     80208020
AU02NSFRBL+1000+11000200231001K0300240407K02+11000200241006K0300250406K03+11000200251005K0300260405KFORBES                                 33.22.00S147.56.00E   IA     80208020
AU02NSGFEL+1000+11000200231001K0300240407K02+11000200241006K0300250406K03+11000200251005K0300260405KGRENFELL                               33.54.00S148.10.00E   IA     80208020
AU02NSGFFL+1000+11000200231001K0300240407K02+11000200241006K0300250406K03+11000200251005K0300260405KGRIFFITH                               34.15.14S146.03.42E    A     80208020
AU02NSGFNL+1000+11000200231001K0300240407K02+11000200241006K0300250406K03+11000200251005K0300260405KGRAFTON                                29.45.34S153.01.48E   IA     80208020
AU02NSGLIL+1000+11000200231001K0300240407K02+11000200241006K0300250406K03+11000200251005K0300260405KGLEN INNES                             29.41.00S151.42.00E   IA     80208020
AU02NSGOSL+1000+11000200231001K0300240407K02+11000200241006K0300250406K03+11000200251005K0300260405KGOSFORD                                33.26.00S151.21.00E   IA     80208020
AU02NSGUHL+1000+11000200231001K0300240407K02+11000200241006K0300250406K03+11000200251005K0300260405KGUNNEDAH                               30.57.00S150.14.00E   IA     80208020
AU02NSGULL+1000+11000200231001K0300240407K02+11000200241006K0300250406K03+11000200251005K0300260405KGOULBURN                               34.49.00S149.44.00E   IA     80208020
AU02NSHXXL+1000+11000200231001K0300240407K02+11000200241006K0300250406K03+11000200251005K0300260405KHAY                                    34.31.00S144.50.00E   IA     80208020
AU02NSIVRL+1000+11000200231001K0300240407K02+11000200241006K0300250406K03+11000200251005K0300260405KINVERELL                               29.53.13S151.08.42E    A     80208020
AU02NSKPSL+1000+11000200231001K0300240407K02+11000200241006K0300250406K03+11000200251005K0300260405KKEMPSEY                                31.04.00S152.46.00E   IA     80208020
AU02NSLBHA+1000+11000200231001K0300240407K02+11000200241006K0300250406K03+11000200251005K0300260405KSYDNEY PALM BEACH SPB                  33.58.00S151.15.00ESYDIA     80208020
AU02NSLHGL+1000+11000200231001K0300240407K02+11000200241006K0300250406K03+11000200251005K0300260405KLIGHTNING RIDGE                        29.24.00S147.58.00E    A     80208020
AU02NSLSYL+1000+11000200231001K0300240407K02+11000200241006K0300250406K03+11000200251005K0300260405KLISMORE                                28.49.46S153.15.28E   IA     80208020
AU02NSMIML+1000+11000200231001K0300240407K02+11000200241006K0300250406K03+11000200251005K0300260405KMERIMBULA                              36.54.31S149.54.05E    A     80208020
AU02NSMRZL+1000+11000200231001K0300240407K02+11000200241006K0300250406K03+11000200251005K0300260405KMOREE                                  29.29.56S149.50.41E    A     80208020
AU02NSMTLL+1000+11000200231001K0300240407K02+11000200241006K0300250406K03+11000200251005K0300260405KMAITLAND                               32.44.00S151.33.00E   IA     80208020
AU02NSMVHL+1000+11000200231001K0300240407K02+11000200241006K0300250406K03+11000200251005K0300260405KMACKSVILLE                             30.43.00S152.55.00E   IA     80208020
AU02NSMYAL+1000+11000200231001K0300240407K02+11000200241006K0300250406K03+11000200251005K0300260405KMORUYA                                 35.53.54S150.08.46E    A     80208020
AU02NSNAAL+1000+11000200231001K0300240407K02+11000200241006K0300250406K03+11000200251005K0300260405KNARRABRI                               30.19.09S149.49.38E    A     80208020
AU02NSNBHL+1000+11000200231001K0300240407K02+11000200241006K0300250406K03+11000200251005K0300260405KNAMBUCCA HEADS                         30.39.00S153.00.00E   IA     80208020
AU02NSNGAL+1000+11000200231001K0300240407K02+11000200241006K0300250406K03+11000200251005K0300260405KYOUNG                                  34.15.00S148.15.00E   IA     80208020
AU02NSNOAL+1000+11000200231001K0300240407K02+11000200241006K0300250406K03+11000200251005K0300260405KNOWRA                                  34.56.00S150.34.00E   IA     80208020
AU02NSNRAL+1000+11000200231001K0300240407K02+11000200241006K0300250406K03+11000200251005K0300260405KNARRANDERA                             34.42.08S146.30.44E    A     80208020
AU02NSNSOL+1000+11000200231001K0300240407K02+11000200241006K0300250406K03+11000200251005K0300260405KSCONE                                  32.02.16S150.49.54E   IA     80208020
AU02NSNTLA+1000+11000200231001K0300240407K02+11000200241006K0300250406K03+11000200251005K0300260405KNEWCASTLE WILLIAMTOWN APT              32.47.42S151.50.04ENTL A     80208020
AU02NSNTLM+1000+11000200231001K0300240407K02+11000200241006K0300250406K03+11000200251005K0300260405KNEWCASTLE                              32.47.45S151.50.00E          80208020
AU02NSNYNL+1000+11000200231001K0300240407K02+11000200241006K0300250406K03+11000200251005K0300260405KNYNGAN                                 31.33.00S147.11.00E   IA     80208020
AU02NSOAGL+1000+11000200231001K0300240407K02+11000200241006K0300250406K03+11000200251005K0300260405KORANGE                                 33.22.56S149.07.53E    A     80208020
AU02NSOOML+1000+11000200231001K0300240407K02+11000200241006K0300250406K03+11000200251005K0300260405KCOOMA                                  36.18.02S148.58.26E   IA     80208020
AU02NSPHJA+1000+11000200231001K0300240407K02+11000200241006K0300250406K03+11000200251005K0300260405KNEWCASTLE HARBOUR HELIPORT             32.55.00S151.46.00ENTLIA     80208020
AU02NSPKEL+1000+11000200231001K0300240407K02+11000200241006K0300250406K03+11000200251005K0300260405KPARKES                                 33.07.53S148.14.21E    A     80208020
AU02NSPQQL+1000+11000200231001K0300240407K02+11000200241006K0300250406K03+11000200251005K0300260405KPORT MACQUARIE                         31.26.08S152.51.44E    A     80208020
AU02NSQBEL+1000+11000200231001K0300240407K02+11000200241006K0300250406K03+11000200251005K0300260405KBEGA OFF-LINE POINT                    36.40.00S149.50.00E   IO     80208020
AU02NSQBWL+1000+11000200231001K0300240407K02+11000200241006K0300250406K03+11000200251005K0300260405KBATEMANS BAY OFF-LINE POINT            35.43.00S150.11.00E   IO     80208020
AU02NSQDNL+1000+11000200231001K0300240407K02+11000200241006K0300250406K03+11000200251005K0300260405KEDEN OFF-LINE POINT                    37.04.00S149.54.00E   IO     80208020
AU02NSQELL+1000+11000200231001K0300240407K02+11000200241006K0300250406K03+11000200251005K0300260405KWELLINGTON OFF-LINE POINT              32.33.00S148.57.00E   IO     80208020
AU02NSQJDL+1000+11000200231001K0300240407K02+11000200241006K0300250406K03+11000200251005K0300260405KJINDABYNE OFF-LINE POINT               36.25.10S148.38.00E   IO     80208020
AU02NSQLEL+1000+11000200231001K0300240407K02+11000200241006K0300250406K03+11000200251005K0300260405KLEETON BUS STATION                     34.33.00S146.24.00E   IB     80208020
AU02NSQPVL+1000+11000200231001K0300240407K02+11000200241006K0300250406K03+11000200251005K0300260405KPERISHER VALLEY BUS STATION            37.35.22S148.37.00E   IB     80208020
AU02NSQRML+1000+11000200231001K0300240407K02+11000200241006K0300250406K03+11000200251005K0300260405KNARROMINE OFF-LINE PT                  32.14.00S148.15.00E   IO     80208020
AU02NSQRRL+1000+11000200231001K0300240407K02+11000200241006K0300250406K03+11000200251005K0300260405KWARREN OFF-LINE PT                     31.42.00S147.50.00E   IO     80208020
AU02NSQRXL+1000+11000200231001K0300240407K02+11000200241006K0300250406K03+11000200251005K0300260405KNAROOMA OFF-LINE PT                    36.14.00S150.03.00E   IO     80208020
AU02NSQTHL+1000+11000200231001K0300240407K02+11000200241006K0300250406K03+11000200251005K0300260405KTHREDBO BUS STATION                    36.29.00S148.19.00E   IB     80208020
AU02NSQTOL+1000+11000200231001K0300240407K02+11000200241006K0300250406K03+11000200251005K0300260405KSKITUBE OFF-LINE POINT                 36.28.00S148.28.00E   IO     80208020
AU02NSQWLL+1000+11000200231001K0300240407K02+11000200241006K0300250406K03+11000200251005K0300260405KCRACKENBACK VILLAGE BUS STATION        36.28.00S148.29.00E   IB     80208020
AU02NSQYNL+1000+11000200231001K0300240407K02+11000200241006K0300250406K03+11000200251005K0300260405KBYRON BAY OFF-LINE PT                  28.39.00S153.38.00E   IO     80208020
AU02NSQZCL+1000+11000200231001K0300240407K02+11000200241006K0300250406K03+11000200251005K0300260405KSMIGGIN HOLES BUS STATION              36.30.00S148.15.00E   IB     80208020
AU02NSQZML+1000+11000200231001K0300240407K02+11000200241006K0300250406K03+11000200251005K0300260405KBULLOCKS FLAT BUS STATION              36.22.00S148.36.00E   IB     80208020
AU02NSRSEA+1000+11000200231001K0300240407K02+11000200241006K0300250406K03+11000200251005K0300260405KSYDNEY ROSE BAY SPB APT                33.48.00S151.13.00ESYDIA     80208020
AU02NSSIXL+1000+11000200231001K0300240407K02+11000200241006K0300250406K03+11000200251005K0300260405KSINGLETON                              32.34.00S151.10.00E   IA     80208020
AU02NSSYDA+1000+11000200231001K0300240407K02+11000200241006K0300250406K03+11000200251005K0300260405KSYDNEY KINGSFORD SMITH APT             33.56.46S151.10.38ESYD A     80208020
AU02NSSYDM+1000+11000200231001K0300240407K02+11000200241006K0300250406K03+11000200251005K0300260405KSYDNEY                                 33.56.00S151.10.00E          80208020
AU02NSTCWL+1000+11000200231001K0300240407K02+11000200241006K0300250406K03+11000200251005K0300260405KTOCUMWAL                               35.49.00S145.34.00E   IA     80208020
AU02NSTEML+1000+11000200231001K0300240407K02+11000200241006K0300250406K03+11000200251005K0300260405KTEMORA                                 34.25.00S147.30.00E   IA     80208020
AU02NSTMWL+1000+11000200231001K0300240407K02+11000200241006K0300250406K03+11000200251005K0300260405KTAMWORTH                               31.05.02S150.50.48E    A     80208020
AU02NSTROL+1000+11000200231001K0300240407K02+11000200241006K0300250406K03+11000200251005K0300260405KTAREE                                  31.53.19S152.30.50E   IA     80208020
AU02NSTUML+1000+11000200231001K0300240407K02+11000200241006K0300250406K03+11000200251005K0300260405KTUMUT                                  35.18.00S148.13.00E   IA     80208020
AU02NSTYBL+1000+11000200231001K0300240407K02+11000200241006K0300250406K03+11000200251005K0300260405KTIBOOBURRA                             29.27.25S142.03.44E   IA     80208020
AU02NSUIRL+1000+11000200231001K0300240407K02+11000200241006K0300250406K03+11000200251005K0300260405KQUIRINDI                               31.30.00S150.31.00E   IA     80208020
AU02NSWEWL+1000+11000200231001K0300240407K02+11000200241006K0300250406K03+11000200251005K0300260405KWEE WAA                                30.14.00S149.26.00E   IA     80208020
AU02NSWGAL+1000+11000200231001K0300240407K02+11000200241006K0300250406K03+11000200251005K0300260405KWAGGA WAGGA                            35.09.55S147.27.59E    A     80208020
AU02NSWGEL+1000+11000200231001K0300240407K02+11000200241006K0300250406K03+11000200251005K0300260405KWALGETT                                30.02.00S148.08.00E    A     80208020
AU02NSWGZL+1000+11000200231001K0300240407K02+11000200241006K0300250406K03+11000200251005K0300260405KMANLY OFF-LINE POINT                   33.47.59S151.16.59E   IO     80208020
AU02NSWIOL+1000+11000200231001K0300240407K02+11000200241006K0300250406K03+11000200251005K0300260405KWILCANNIA                              31.34.00S143.23.00E   IA     80208020
AU02NSWLCL+1000+11000200231001K0300240407K02+11000200241006K0300250406K03+11000200251005K0300260405KWALCHA                                 30.59.00S151.36.00E   IA     80208020
AU02NSWOLL+1000+11000200231001K0300240407K02+11000200241006K0300250406K03+11000200251005K0300260405KWOLLONGONG                             34.33.26S150.47.12E    A     80208020
AU02NSWWYL+1000+11000200231001K0300240407K02+11000200241006K0300250406K03+11000200251005K0300260405KWEST WYALONG                           33.56.14S147.11.29E   IA     80208020
AU02NSXRHL+1000+11000200231001K0300240407K02+11000200241006K0300250406K03+11000200251005K0300260405KRICHMOND                               33.36.15S150.46.52E   IA     80208020
AU02NSXYSL+1000+11000200231001K0300240407K02+11000200241006K0300250406K03+11000200251005K0300260405KSYDNEY                                 33.59.00S151.12.00E   IH     80208020
AU02NSXZXL+1000+11000200231001K0300240407K02+11000200241006K0300250406K03+11000200251005K0300260405KRAIL (GENERIC) RAIL STATION            33.55.00S151.10.00E   IO     80208020
AU02VIARYL+1000+11000200231001K0300240407K02+11000200241006K0300250406K03+11000200251005K0300260405KARARAT                                 37.17.00S142.56.00E   IA     80208020
AU02VIAVVA+1000+11000200231001K0300240407K02+11000200241006K0300250406K03+11000200251005K0300260405KMELBOURNE AVALON AIRPORT               38.02.22S144.28.10EMEL A     80208020
AU02VIBLNL+1000+11000200231001K0300240407K02+11000200241006K0300250406K03+11000200251005K0300260405KBENALLA                                36.33.00S145.59.00E   IA     80208020
AU02VIBRJL+1000+11000200231001K0300240407K02+11000200241006K0300250406K03+11000200251005K0300260405KBRIGHT                                 36.44.00S146.58.00E   IA     80208020
AU02VIBSJL+1000+11000200231001K0300240407K02+11000200241006K0300250406K03+11000200251005K0300260405KBAIRNSDALE                             37.53.00S147.34.00E   IA     80208020
AU02VIBXGL+1000+11000200231001K0300240407K02+11000200241006K0300250406K03+11000200251005K0300260405KBENDIGO                                36.44.05S144.19.07E    A     80208020
AU02VICYGL+1000+11000200231001K0300240407K02+11000200241006K0300250406K03+11000200251005K0300260405KCORRYONG                               36.15.00S147.54.00E   IA     80208020
AU02VIECHL+1000+11000200231001K0300240407K02+11000200241006K0300250406K03+11000200251005K0300260405KECHUCA                                 36.09.00S144.45.00E   IA     80208020
AU02VIFLCL+1000+11000200231001K0300240407K02+11000200241006K0300250406K03+11000200251005K0300260405KFALLS CREEK                            34.59.00S150.36.00E   IA     80208020
AU02VIGEXL+1000+11000200231001K0300240407K02+11000200241006K0300250406K03+11000200251005K0300260405KGEELONG                                38.13.32S144.20.00E   IA     80208020
AU02VIHLTL+1000+11000200231001K0300240407K02+11000200241006K0300250406K03+11000200251005K0300260405KHAMILTON                               37.38.50S142.03.43E   IA     80208020
AU02VIHSML+1000+11000200231001K0300240407K02+11000200241006K0300250406K03+11000200251005K0300260405KHORSHAM                                36.40.00S142.10.00E   IA     80208020
AU02VIHTUL+1000+11000200231001K0300240407K02+11000200241006K0300250406K03+11000200251005K0300260405KHOPETOUN                               35.43.00S142.21.00E   IA     80208020
AU02VIKAHA+1000+11000200231001K0300240407K02+11000200241006K0300250406K03+11000200251005K0300260405KYARRA BANK HELIPORT                    37.59.00S144.58.00EMELIA     80208020
AU02VIKRAL+1000+11000200231001K0300240407K02+11000200241006K0300250406K03+11000200251005K0300260405KKERANG                                 35.45.00S143.56.00E   IA     80208020
AU02VIMBFL+1000+11000200231001K0300240407K02+11000200241006K0300250406K03+11000200251005K0300260405KMOUNT BUFFALO                          36.45.00S146.45.00E   IA     80208020
AU02VIMBWL+1000+11000200231001K0300240407K02+11000200241006K0300250406K03+11000200251005K0300260405KMOORABBIN                              37.58.33S145.06.08E    A     80208020
AU02VIMEBA+1000+11000200231001K0300240407K02+11000200241006K0300250406K03+11000200251005K0300260405KMELBOURNE ESSENDON APT                 37.44.00S144.54.00EMEL A     80208020
AU02VIMELA+1000+11000200231001K0300240407K02+11000200241006K0300250406K03+11000200251005K0300260405KMELBOURNE AIRPORT                      37.40.24S144.50.36EMEL A     80208020
AU02VIMELM+1000+11000200231001K0300240407K02+11000200241006K0300250406K03+11000200251005K0300260405KMELBOURNE                              37.44.00S144.54.20E          80208020
AU02VIMHUL+1000+11000200231001K0300240407K02+11000200241006K0300250406K03+11000200251005K0300260405KMOUNT HOTHAM                           37.02.51S147.20.03E   IA     80208020
AU02VIMQLL+1000+11000200231001K0300240407K02+11000200241006K0300250406K03+11000200251005K0300260405KMILDURA                                34.13.45S142.05.08E    A     80208020
AU02VIOYNL+1000+11000200231001K0300240407K02+11000200241006K0300250406K03+11000200251005K0300260405KOUYEN                                  36.55.55S142.19.00E   IA     80208020
AU02VIPTJL+1000+11000200231001K0300240407K02+11000200241006K0300250406K03+11000200251005K0300260405KPORTLAND                               38.19.10S141.28.00E   IA     80208020
AU02VIRBCL+1000+11000200231001K0300240407K02+11000200241006K0300250406K03+11000200251005K0300260405KROBINVALE                              34.39.00S142.47.00E   IA     80208020
AU02VIRBSL+1000+11000200231001K0300240407K02+11000200241006K0300250406K03+11000200251005K0300260405KORBOST                                 37.42.00S148.30.00E   IA     80208020
AU02VISHTL+1000+11000200231001K0300240407K02+11000200241006K0300250406K03+11000200251005K0300260405KSHEPPARTON                             36.26.00S145.24.00E   IA     80208020
AU02VISWCL+1000+11000200231001K0300240407K02+11000200241006K0300250406K03+11000200251005K0300260405KSTAWELL                                37.04.00S142.46.00E   IA     80208020
AU02VISWHL+1000+11000200231001K0300240407K02+11000200241006K0300250406K03+11000200251005K0300260405KSWAN HILL                              35.23.00S143.33.00E   IA     80208020
AU02VISXEL+1000+11000200231001K0300240407K02+11000200241006K0300250406K03+11000200251005K0300260405KSALE                                   38.05.00S146.58.00E   IA     80208020
AU02VITGNL+1000+11000200231001K0300240407K02+11000200241006K0300250406K03+11000200251005K0300260405KTRARALGON                              38.12.00S146.32.00E   IA     80208020
AU02VIWGTL+1000+11000200231001K0300240407K02+11000200241006K0300250406K03+11000200251005K0300260405KWANGARATTA                             36.24.57S146.18.30E   IA     80208020
AU02VIWHLL+1000+11000200231001K0300240407K02+11000200241006K0300250406K03+11000200251005K0300260405KWELSHPOOL                              38.41.20S146.27.00E   IA     80208020
AU02VIWKBL+1000+11000200231001K0300240407K02+11000200241006K0300250406K03+11000200251005K0300260405KWARRACKNABEAL                          36.19.00S142.25.00E   IA     80208020
AU02VIWMBL+1000+11000200231001K0300240407K02+11000200241006K0300250406K03+11000200251005K0300260405KWARRNAMBOOL                            38.17.40S142.26.49E   IA     80208020
AU02VIXCOL+1000+11000200231001K0300240407K02+11000200241006K0300250406K03+11000200251005K0300260405KCOLAC                                  38.20.00S143.35.00E   IA     80208020
AU02VIXMCL+1000+11000200231001K0300240407K02+11000200241006K0300250406K03+11000200251005K0300260405KMALLACOOTA                             37.36.00S149.43.00E   IA     80208020
AU02VIXOML+1000+11000200231001K0300240407K02+11000200241006K0300250406K03+11000200251005K0300260405KMELBOURNE                              37.49.00S144.55.00E   IH     80208020
AU02VIZZFL+1000+11000200231001K0300240407K02+11000200241006K0300250406K03+11000200251005K0300260405KMYSTERY FLIGHT                         37.00.00S144.00.00E   IO     80208020
AU02VIZZIL+1000+11000200231001K0300240407K02+11000200241006K0300250406K03+11000200251005K0300260405KELITE MYSTERY NIGHT OFF-LINE POINT     37.10.00S145.00.00E   IO     80208020
AU02VIZZJL+1000+11000200231001K0300240407K02+11000200241006K0300250406K03+11000200251005K0300260405KMYSTERY NIGHT OFF-LINE POINT           37.40.00S145.00.00E   IO     80208020
AU03NTAMXL+0930     0000000000 0000000000        0000000000 0000000000        0000000000 0000000000 AMMAROO                                21.44.24S135.14.24E   IA     80208020
AU03NTANZL+0930     0000000000 0000000000        0000000000 0000000000        0000000000 0000000000 ANGUS DOWNS STATION                    25.05.00S132.10.00E   IA     80208020
AU03NTASPA+0930     0000000000 0000000000        0000000000 0000000000        0000000000 0000000000 ALICE SPRINGS AIRPORT                  23.48.24S133.54.08EASP A     80208020
AU03NTASPM+0930     0000000000 0000000000        0000000000 0000000000        0000000000 0000000000 ALICE SPRINGS                          23.42.00S133.52.00E          80208020
AU03NTAVGL+0930     0000000000 0000000000        0000000000 0000000000        0000000000 0000000000 AUVERGNE STATION                       15.45.00S129.55.00E   IA     80208020
AU03NTAWPL+0930     0000000000 0000000000        0000000000 0000000000        0000000000 0000000000 AUSTRAL DOWNS STATION                  20.20.00S137.15.00E   IA     80208020
AU03NTAXLL+0930     0000000000 0000000000        0000000000 0000000000        0000000000 0000000000 ALEXANDRIA STATION                     19.07.00S136.46.00E   IA     80208020
AU03NTAYDL+0930     0000000000 0000000000        0000000000 0000000000        0000000000 0000000000 ALROY DOWNS                            19.18.00S135.57.00E   IA     80208020
AU03NTAYLL+0930     0000000000 0000000000        0000000000 0000000000        0000000000 0000000000 ANTHONY LAGOON                         18.01.00S135.33.00E    A     80208020
AU03NTAYQL+0930     0000000000 0000000000        0000000000 0000000000        0000000000 0000000000 AYERS ROCK                             25.11.10S130.58.32E    A     80208020
AU03NTBCZL+0930     0000000000 0000000000        0000000000 0000000000        0000000000 0000000000 BICKERTON ISLAND                       13.47.00S137.48.00E   IA     80208020
AU03NTBOXL+0930     0000000000 0000000000        0000000000 0000000000        0000000000 0000000000 BORROLOOLA                             16.05.00S136.18.00E   IA     80208020
AU03NTBRTL+0930     0000000000 0000000000        0000000000 0000000000        0000000000 0000000000 BATHURST ISLAND                        11.46.00S130.38.00E   IA     80208020
AU03NTBTDL+0930     0000000000 0000000000        0000000000 0000000000        0000000000 0000000000 BRUNETTE DOWNS                         18.38.00S135.56.00E   IA     80208020
AU03NTBYXL+0930     0000000000 0000000000        0000000000 0000000000        0000000000 0000000000 BANIYALA                               13.12.00S136.14.00E   IA     80208020
AU03NTCDAL+0930     0000000000 0000000000        0000000000 0000000000        0000000000 0000000000 COOINDA                                12.54.00S132.31.00E   IA     80208020
AU03NTCFIL+0930     0000000000 0000000000        0000000000 0000000000        0000000000 0000000000 CAMFIELD STATION                       17.09.00S131.21.00E   IA     80208020
AU03NTCKIL+0930     0000000000 0000000000        0000000000 0000000000        0000000000 0000000000 CROKER ISLAND                          11.05.00S132.30.00E   IA     80208020
AU03NTCOBL+0930     0000000000 0000000000        0000000000 0000000000        0000000000 0000000000 COOLIBAH                               15.40.00S130.58.00E   IA     80208020
AU03NTCSDL+0930     0000000000 0000000000        0000000000 0000000000        0000000000 0000000000 CRESSWELL DOWNS                        17.58.00S135.55.00E   IA     80208020
AU03NTCTRL+0930     0000000000 0000000000        0000000000 0000000000        0000000000 0000000000 CATTLE CREEK                           17.35.00S131.00.00E   IA     80208020
AU03NTDKVL+0930     0000000000 0000000000        0000000000 0000000000        0000000000 0000000000 DOCKER RIVER                           24.52.00S129.07.00E   IA     80208020
AU03NTDLVL+0930     0000000000 0000000000        0000000000 0000000000        0000000000 0000000000 DELISSAVILLE                           12.25.00S130.20.30E   IA     80208020
AU03NTDRWA+0930     0000000000 0000000000        0000000000 0000000000        0000000000 0000000000 DARWIN INTERNATIONAL                   12.24.53S130.52.36EDRW A     80208020
AU03NTDRWM+0930     0000000000 0000000000        0000000000 0000000000        0000000000 0000000000 DARWIN                                 12.23.00S130.44.00E          80208020
AU03NTDVRL+0930     0000000000 0000000000        0000000000 0000000000        0000000000 0000000000 DALY RIVER MISSION                     13.45.00S130.41.00E   IA     80208020
AU03NTDYWL+0930     0000000000 0000000000        0000000000 0000000000        0000000000 0000000000 DALY WATERS                            16.16.00S133.22.00E   IA     80208020
AU03NTEDDL+0930     0000000000 0000000000        0000000000 0000000000        0000000000 0000000000 ERLDUNDA                               25.15.00S133.12.00E   IA     80208020
AU03NTEKDL+0930     0000000000 0000000000        0000000000 0000000000        0000000000 0000000000 ELKEDRA                                21.02.00S135.15.00E   IA     80208020
AU03NTELCL+0930     0000000000 0000000000        0000000000 0000000000        0000000000 0000000000 ELCHO ISLAND                           12.01.10S135.34.14E    A     80208020
AU03NTEVDL+0930     0000000000 0000000000        0000000000 0000000000        0000000000 0000000000 EVA DOWNS                              18.05.00S134.52.00E   IA     80208020
AU03NTFIKL+0930     0000000000 0000000000        0000000000 0000000000        0000000000 0000000000 FINKE                                  25.35.00S134.36.00E   IA     80208020
AU03NTGBLL+0930     0000000000 0000000000        0000000000 0000000000        0000000000 0000000000 SOUTH GOULBURN ISLAND                  11.40.00S133.25.00E   IA     80208020
AU03NTGOVL+0930     0000000000 0000000000        0000000000 0000000000        0000000000 0000000000 NHULUNBUY                              12.16.10S136.49.06E    A     80208020
AU03NTGPNL+0930     0000000000 0000000000        0000000000 0000000000        0000000000 0000000000 GARDEN POINT                           11.24.00S130.26.00E   IA     80208020
AU03NTGTEL+0930     0000000000 0000000000        0000000000 0000000000        0000000000 0000000000 GROOTE EYLANDT                         13.58.21S136.27.31E    A     80208020
AU03NTGTSL+0930     0000000000 0000000000        0000000000 0000000000        0000000000 0000000000 THE GRANITES                           20.32.54S130.21.00E    A     80208020
AU03NTHMGL+0930     0000000000 0000000000        0000000000 0000000000        0000000000 0000000000 HERMANNSBURG                           23.58.00S132.40.00E   IA     80208020
AU03NTHOKL+0930     0000000000 0000000000        0000000000 0000000000        0000000000 0000000000 LAJAMANU                               18.20.17S130.38.15E   IA     80208020
AU03NTHRYL+0930     0000000000 0000000000        0000000000 0000000000        0000000000 0000000000 HENBURY                                24.40.00S133.05.00E   IA     80208020
AU03NTHUBL+0930     0000000000 0000000000        0000000000 0000000000        0000000000 0000000000 HUMBERT RIVER                          16.29.23S130.37.47E   IA     80208020
AU03NTIVWL+0930     0000000000 0000000000        0000000000 0000000000        0000000000 0000000000 INVERWAY                               17.46.00S129.14.00E   IA     80208020
AU03NTJABL+0930     0000000000 0000000000        0000000000 0000000000        0000000000 0000000000 JABIRU                                 10.13.00S132.34.00E   IA     80208020
AU03NTKBBL+0930     0000000000 0000000000        0000000000 0000000000        0000000000 0000000000 KIRKIMBIE STATION                      17.46.00S129.13.00E   IA     80208020
AU03NTKBJL+0930     0000000000 0000000000        0000000000 0000000000        0000000000 0000000000 KINGS CANYON                           24.16.00S131.29.40E   IA     80208020
AU03NTKCSL+0930     0000000000 0000000000        0000000000 0000000000        0000000000 0000000000 KINGS CREEK STATION                    24.23.00S131.41.00E   IA     80208020
AU03NTKFGL+0930     0000000000 0000000000        0000000000 0000000000        0000000000 0000000000 KALKGURUNG                             17.25.55S130.48.29E   IA     80208020
AU03NTKGRL+0930     0000000000 0000000000        0000000000 0000000000        0000000000 0000000000 KULGERA                                25.50.00S133.30.00E   IA     80208020
AU03NTKRDL+0930     0000000000 0000000000        0000000000 0000000000        0000000000 0000000000 KURUNDI STATION                        20.30.00S134.38.00E   IA     80208020
AU03NTKTRL+0930     0000000000 0000000000        0000000000 0000000000        0000000000 0000000000 KATHERINE                              14.31.16S132.22.40E    A     80208020
AU03NTLELL+0930     0000000000 0000000000        0000000000 0000000000        0000000000 0000000000 GAPUWIYAK                              12.29.56S135.48.21E   IA     80208020
AU03NTLIBL+0930     0000000000 0000000000        0000000000 0000000000        0000000000 0000000000 LIMBUNYA STATION                       17.20.00S129.50.00E   IA     80208020
AU03NTLNHL+0930     0000000000 0000000000        0000000000 0000000000        0000000000 0000000000 LAKE NASH                              21.00.00S137.55.00E   IA     80208020
AU03NTMCVL+0930     0000000000 0000000000        0000000000 0000000000        0000000000 0000000000 MCARTHUR RIVER MINE                    16.26.32S136.04.59E    A     80208020
AU03NTMFPL+0930     0000000000 0000000000        0000000000 0000000000        0000000000 0000000000 MANNERS CREEK STATION                  22.06.00S137.59.00E   IA     80208020
AU03NTMGTL+0930     0000000000 0000000000        0000000000 0000000000        0000000000 0000000000 MILINGIMBI ISLAND                      12.05.40S134.53.37E    A     80208020
AU03NTMIYL+0930     0000000000 0000000000        0000000000 0000000000        0000000000 0000000000 MITTIEBAH                              18.54.00S137.04.00E   IA     80208020
AU03NTMIZL+0930     0000000000 0000000000        0000000000 0000000000        0000000000 0000000000 MAINORU                                14.18.00S134.05.00E   IA     80208020
AU03NTMKVL+0930     0000000000 0000000000        0000000000 0000000000        0000000000 0000000000 MOUNT CAVENAGH                         25.58.00S133.12.00E   IA     80208020
AU03NTMNGL+0930     0000000000 0000000000        0000000000 0000000000        0000000000 0000000000 MANINGRIDA                             12.03.22S134.14.03E    A     80208020
AU03NTMNVL+0930     0000000000 0000000000        0000000000 0000000000        0000000000 0000000000 MOUNT VALLEY                           14.07.00S133.50.00E   IA     80208020
AU03NTMNWL+0930     0000000000 0000000000        0000000000 0000000000        0000000000 0000000000 MACDONALD DOWNS                        22.30.00S135.10.00E   IA     80208020
AU03NTMQEL+0930     0000000000 0000000000        0000000000 0000000000        0000000000 0000000000 MARQUA                                 22.49.00S137.21.00E   IA     80208020
AU03NTMRTL+0930     0000000000 0000000000        0000000000 0000000000        0000000000 0000000000 MOROAK                                 14.49.00S133.42.00E   IA     80208020
AU03NTMSFL+0930     0000000000 0000000000        0000000000 0000000000        0000000000 0000000000 MOUNT SWAN                             22.40.00S134.55.00E   IA     80208020
AU03NTMTDL+0930     0000000000 0000000000        0000000000 0000000000        0000000000 0000000000 MOUNT SANFORD STATION                  16.59.00S130.33.00E   IA     80208020
AU03NTMUPL+0930     0000000000 0000000000        0000000000 0000000000        0000000000 0000000000 MULGA PARK                             25.51.00S131.36.00E   IA     80208020
AU03NTNPPL+0930     0000000000 0000000000        0000000000 0000000000        0000000000 0000000000 NAPPERBY                               22.38.00S132.50.00E   IA     80208020
AU03NTNRYL+0930     0000000000 0000000000        0000000000 0000000000        0000000000 0000000000 NEWRY                                  16.05.00S129.20.30E   IA     80208020
AU03NTNUBL+0930     0000000000 0000000000        0000000000 0000000000        0000000000 0000000000 NUMBULWAR                              14.16.00S135.43.00E   IA     80208020
AU03NTOPIL+0930     0000000000 0000000000        0000000000 0000000000        0000000000 0000000000 OENPELLI                               12.20.00S133.05.00E   IA     80208020
AU03NTPEPL+0930     0000000000 0000000000        0000000000 0000000000        0000000000 0000000000 PEPPIMENARTI                           14.09.00S130.06.00E   IA     80208020
AU03NTPKTL+0930     0000000000 0000000000        0000000000 0000000000        0000000000 0000000000 PORT KEATS                             14.15.00S129.32.00E   IA     80208020
AU03NTRAML+0930     0000000000 0000000000        0000000000 0000000000        0000000000 0000000000 RAMINGINING                            12.21.23S134.53.51E   IA     80208020
AU03NTRDAL+0930     0000000000 0000000000        0000000000 0000000000        0000000000 0000000000 ROCKHAMPTON DOWNS                      18.57.00S135.12.00E   IA     80208020
AU03NTRPBL+0930     0000000000 0000000000        0000000000 0000000000        0000000000 0000000000 ROPER BAR                              14.45.00S134.33.00E   IA     80208020
AU03NTRPML+0930     0000000000 0000000000        0000000000 0000000000        0000000000 0000000000 NGUKURR                                14.43.00S134.45.00E   IA     80208020
AU03NTRPVL+0930     0000000000 0000000000        0000000000 0000000000        0000000000 0000000000 ROPER VALLEY                           15.02.00S134.02.00E   IA     80208020
AU03NTRRVL+0930     0000000000 0000000000        0000000000 0000000000        0000000000 0000000000 ROBINSON RIVER                         16.45.00S136.55.00E   IA     80208020
AU03NTSHUL+0930     0000000000 0000000000        0000000000 0000000000        0000000000 0000000000 SMITH POINT                            11.10.00S133.50.00E   IA     80208020
AU03NTSNBL+0930     0000000000 0000000000        0000000000 0000000000        0000000000 0000000000 MILIKAPITI                             11.20.00S130.45.00E   IA     80208020
AU03NTTBKL+0930     0000000000 0000000000        0000000000 0000000000        0000000000 0000000000 TIMBER CREEK                           15.37.00S130.26.00E   IA     80208020
AU03NTTCAL+0930     0000000000 0000000000        0000000000 0000000000        0000000000 0000000000 TENNANT CREEK                          19.38.04S134.10.37E    A     80208020
AU03NTTYPL+0930     0000000000 0000000000        0000000000 0000000000        0000000000 0000000000 TOBERMOREY                             22.17.00S137.58.00E   IA     80208020
AU03NTUTDL+0930     0000000000 0000000000        0000000000 0000000000        0000000000 0000000000 NUTWOOD DOWNS                          15.50.00S134.10.00E   IA     80208020
AU03NTVCDL+0930     0000000000 0000000000        0000000000 0000000000        0000000000 0000000000 VICTORIA RIVER DOWNS                   16.24.13S131.00.09E   IA     80208020
AU03NTWAUL+0930     0000000000 0000000000        0000000000 0000000000        0000000000 0000000000 WAUCHOPE                               20.38.28S134.13.02E   IA     80208020
AU03NTWAVL+0930     0000000000 0000000000        0000000000 0000000000        0000000000 0000000000 WAVE HILL                              17.39.00S130.53.00E   IA     80208020
AU03NTWLLL+0930     0000000000 0000000000        0000000000 0000000000        0000000000 0000000000 WOLLOGORANG                            17.13.00S137.55.00E   IA     80208020
AU03NTWLOL+0930     0000000000 0000000000        0000000000 0000000000        0000000000 0000000000 WATERLOO                               16.38.00S129.19.00E   IA     80208020
AU03NTWOGL+0930     0000000000 0000000000        0000000000 0000000000        0000000000 0000000000 WOODGREEN                              22.30.00S134.15.00E   IA     80208020
AU03NTXHWA+0930     0000000000 0000000000        0000000000 0000000000        0000000000 0000000000 ALICE SPRINGS RAIL STATION             23.41.51S133.52.26EASPIR     80208020
AU03NTXJGA+0930     0000000000 0000000000        0000000000 0000000000        0000000000 0000000000 DARWIN RAIL STATION                    12.28.21S130.54.15EDRWIR     80208020
AU03NTYUEL+0930     0000000000 0000000000        0000000000 0000000000        0000000000 0000000000 YUENDUMU                               22.16.00S131.47.00E   IA     80208020
AU03SAZIIL+0930     0000000000 0000000000        0000000000 0000000000        0000000000 0000000000 ADELAIDE                               34.49.00S138.31.00E   IH     80208020
AU04QLAABL+1000     0000000000 0000000000        0000000000 0000000000        0000000000 0000000000 ARRABURY                               26.41.28S141.02.50E   IA     80208020
AU04QLABGL+1000     0000000000 0000000000        0000000000 0000000000        0000000000 0000000000 ABINGDON DOWNS                         17.40.00S143.12.00E   IA     80208020
AU04QLABHL+1000     0000000000 0000000000        0000000000 0000000000        0000000000 0000000000 ALPHA                                  23.42.00S146.35.00E   IA     80208020
AU04QLABML+1000     0000000000 0000000000        0000000000 0000000000        0000000000 0000000000 BAMAGA                                 10.57.03S142.27.34E    A     80208020
AU04QLAGWL+1000     0000000000 0000000000        0000000000 0000000000        0000000000 0000000000 AGNEW                                  12.09.00S142.09.00E   IA     80208020
AU04QLAUDL+1000     0000000000 0000000000        0000000000 0000000000        0000000000 0000000000 AUGUSTUS DOWNS                         18.40.00S139.56.00E   IA     80208020
AU04QLAUUL+1000     0000000000 0000000000        0000000000 0000000000        0000000000 0000000000 AURUKUN                                13.21.14S141.43.15E    A     80208020
AU04QLAXCL+1000     0000000000 0000000000        0000000000 0000000000        0000000000 0000000000 ARAMAC                                 23.05.00S145.15.00E   IA     80208020
AU04QLAYRL+1000     0000000000 0000000000        0000000000 0000000000        0000000000 0000000000 AYR                                    19.40.00S147.22.00E   IA     80208020
AU04QLBBLL+1000     0000000000 0000000000        0000000000 0000000000        0000000000 0000000000 BALLERA                                27.24.13S141.48.42E   IA     80208020
AU04QLBCIL+1000     0000000000 0000000000        0000000000 0000000000        0000000000 0000000000 BARCALDINE                             23.33.39S145.18.15E    A     80208020
AU04QLBCKL+1000     0000000000 0000000000        0000000000 0000000000        0000000000 0000000000 BOLWARRA                               17.24.00S144.10.00E   IA     80208020
AU04QLBDBL+1000     0000000000 0000000000        0000000000 0000000000        0000000000 0000000000 BUNDABERG                              24.54.09S152.19.15E    A     80208020
AU04QLBDDL+1000     0000000000 0000000000        0000000000 0000000000        0000000000 0000000000 BADU ISLAND                            10.09.00S142.10.27E    A     80208020
AU04QLBEUL+1000     0000000000 0000000000        0000000000 0000000000        0000000000 0000000000 BEDOURIE                               24.20.46S139.27.37E    A     80208020
AU04QLBFCL+1000     0000000000 0000000000        0000000000 0000000000        0000000000 0000000000 BLOOMFIELD RIVER                       15.52.26S145.19.48E   IA     80208020
AU04QLBHTL+1000     0000000000 0000000000        0000000000 0000000000        0000000000 0000000000 BRIGHTON DOWNS                         23.30.00S141.38.00E   IA     80208020
AU04QLBIPL+1000     0000000000 0000000000        0000000000 0000000000        0000000000 0000000000 BULIMBA                                16.09.00S143.45.00E   IA     80208020
AU04QLBKPL+1000     0000000000 0000000000        0000000000 0000000000        0000000000 0000000000 BARKLY DOWNS                           21.02.00S138.15.00E   IA     80208020
AU04QLBKQL+1000     0000000000 0000000000        0000000000 0000000000        0000000000 0000000000 BLACKALL                               24.25.57S145.25.41E    A     80208020
AU04QLBLSL+1000     0000000000 0000000000        0000000000 0000000000        0000000000 0000000000 BOLLON                                 28.02.00S147.22.00E   IA     80208020
AU04QLBLTL+1000     0000000000 0000000000        0000000000 0000000000        0000000000 0000000000 BLACKWATER                             23.36.11S148.48.25E   IA     80208020
AU04QLBMPL+1000     0000000000 0000000000        0000000000 0000000000        0000000000 0000000000 BRAMPTON ISLAND                        20.47.00S149.14.00E   IA     80208020
AU04QLBNEL+1000     0000000000 0000000000        0000000000 0000000000        0000000000 0000000000 BRISBANE                               27.23.03S153.07.03E    A     80208020
AU04QLBQLL+1000     0000000000 0000000000        0000000000 0000000000        0000000000 0000000000 BOULIA                                 22.54.47S139.54.03E    A     80208020
AU04QLBTXL+1000     0000000000 0000000000        0000000000 0000000000        0000000000 0000000000 BETOOTA                                25.38.00S140.48.00E   IA     80208020
AU04QLBUCL+1000     0000000000 0000000000        0000000000 0000000000        0000000000 0000000000 BURKETOWN                              17.44.55S139.32.04E    A     80208020
AU04QLBVIL+1000     0000000000 0000000000        0000000000 0000000000        0000000000 0000000000 BIRDSVILLE                             25.53.31S139.20.43E    A     80208020
AU04QLBVWL+1000     0000000000 0000000000        0000000000 0000000000        0000000000 0000000000 BATAVIA DOWNS                          12.27.00S143.15.00E   IA     80208020
AU04QLBZPL+1000     0000000000 0000000000        0000000000 0000000000        0000000000 0000000000 BIZANT                                 15.13.00S144.38.00E   IA     80208020
AU04QLCBYL+1000     0000000000 0000000000        0000000000 0000000000        0000000000 0000000000 CANOBIE                                19.38.00S140.55.00E   IA     80208020
AU04QLCCLL+1000     0000000000 0000000000        0000000000 0000000000        0000000000 0000000000 CHINCHILLA                             26.46.20S150.37.05E   IA     80208020
AU04QLCDQL+1000     0000000000 0000000000        0000000000 0000000000        0000000000 0000000000 CROYDON                                18.18.00S142.15.00E   IA     80208020
AU04QLCFPL+1000     0000000000 0000000000        0000000000 0000000000        0000000000 0000000000 CARPENTARIA DOWNS                      18.47.00S144.21.00E   IA     80208020
AU04QLCMAL+1000     0000000000 0000000000        0000000000 0000000000        0000000000 0000000000 CUNNAMULLA                             28.01.48S145.37.20E    A     80208020
AU04QLCMLL+1000     0000000000 0000000000        0000000000 0000000000        0000000000 0000000000 CAMOOWEAL                              19.55.00S138.08.00E   IA     80208020
AU04QLCMQL+1000     0000000000 0000000000        0000000000 0000000000        0000000000 0000000000 CLERMONT                               22.46.00S147.37.00E   IA     80208020
AU04QLCNCL+1000     0000000000 0000000000        0000000000 0000000000        0000000000 0000000000 COCONUT ISLAND                         10.03.01S143.04.18E    A     80208020
AU04QLCNJL+1000     0000000000 0000000000        0000000000 0000000000        0000000000 0000000000 CLONCURRY                              20.40.07S140.30.16E    A     80208020
AU04QLCNSL+1000     0000000000 0000000000        0000000000 0000000000        0000000000 0000000000 CAIRNS                                 16.52.41S145.44.56E    A     80208020
AU04QLCQPL+1000     0000000000 0000000000        0000000000 0000000000        0000000000 0000000000 CAPE FLATTERY                          18.12.00S147.30.00E   IA     80208020
AU04QLCRHL+1000     0000000000 0000000000        0000000000 0000000000        0000000000 0000000000 CHERRABAH                              27.39.00S151.57.00E   IA     80208020
AU04QLCTLL+1000     0000000000 0000000000        0000000000 0000000000        0000000000 0000000000 CHARLEVILLE                            26.24.48S146.15.45E    A     80208020
AU04QLCTNL+1000     0000000000 0000000000        0000000000 0000000000        0000000000 0000000000 COOKTOWN                               15.26.37S145.10.58E   IA     80208020
AU04QLCUDL+1000     0000000000 0000000000        0000000000 0000000000        0000000000 0000000000 CALOUNDRA                              26.48.00S153.09.00E   IA     80208020
AU04QLCUQL+1000     0000000000 0000000000        0000000000 0000000000        0000000000 0000000000 COEN                                   13.45.46S143.07.01E   IA     80208020
AU04QLCXTL+1000     0000000000 0000000000        0000000000 0000000000        0000000000 0000000000 CHARTERS TOWERS                        20.03.00S146.16.00E   IA     80208020
AU04QLCZYL+1000     0000000000 0000000000        0000000000 0000000000        0000000000 0000000000 CLUNY                                  24.30.00S139.30.00E   IA     80208020
AU04QLDAJL+1000     0000000000 0000000000        0000000000 0000000000        0000000000 0000000000 DAUAN ISLAND                           09.26.00S142.31.00E   IA     80208020
AU04QLDBYL+1000     0000000000 0000000000        0000000000 0000000000        0000000000 0000000000 DALBY                                  27.15.00S151.10.00E   IA     80208020
AU04QLDDIL+1000     0000000000 0000000000        0000000000 0000000000        0000000000 0000000000 DAYDREAM ISLAND                        20.10.00S148.11.00E   IA     80208020
AU04QLDDNL+1000     0000000000 0000000000        0000000000 0000000000        0000000000 0000000000 DELTA DOWNS                            16.55.00S141.18.00E   IA     80208020
AU04QLDFPL+1000     0000000000 0000000000        0000000000 0000000000        0000000000 0000000000 DRUMDUFF                               16.00.00S143.02.00E   IA     80208020
AU04QLDHDL+1000     0000000000 0000000000        0000000000 0000000000        0000000000 0000000000 DURHAM DOWNS                           27.04.00S141.55.00E   IA     80208020
